{
  "_format": "hh-sol-artifact-1",
  "contractName": "CerifiableNFT",
  "sourceName": "contracts/CerifiableNFT.sol",
  "abi": [
    {
      "inputs": [
        {
          "internalType": "string",
          "name": "name",
          "type": "string"
        },
        {
          "internalType": "string",
          "name": "symbol",
          "type": "string"
        },
        {
          "internalType": "string",
          "name": "baseURI",
          "type": "string"
        }
      ],
      "stateMutability": "nonpayable",
      "type": "constructor"
    },
    {
      "inputs": [
        {
          "internalType": "address",
          "name": "sender",
          "type": "address"
        },
        {
          "internalType": "uint256",
          "name": "tokenId",
          "type": "uint256"
        },
        {
          "internalType": "address",
          "name": "owner",
          "type": "address"
        }
      ],
      "name": "ERC721IncorrectOwner",
      "type": "error"
    },
    {
      "inputs": [
        {
          "internalType": "address",
          "name": "operator",
          "type": "address"
        },
        {
          "internalType": "uint256",
          "name": "tokenId",
          "type": "uint256"
        }
      ],
      "name": "ERC721InsufficientApproval",
      "type": "error"
    },
    {
      "inputs": [
        {
          "internalType": "address",
          "name": "approver",
          "type": "address"
        }
      ],
      "name": "ERC721InvalidApprover",
      "type": "error"
    },
    {
      "inputs": [
        {
          "internalType": "address",
          "name": "operator",
          "type": "address"
        }
      ],
      "name": "ERC721InvalidOperator",
      "type": "error"
    },
    {
      "inputs": [
        {
          "internalType": "address",
          "name": "owner",
          "type": "address"
        }
      ],
      "name": "ERC721InvalidOwner",
      "type": "error"
    },
    {
      "inputs": [
        {
          "internalType": "address",
          "name": "receiver",
          "type": "address"
        }
      ],
      "name": "ERC721InvalidReceiver",
      "type": "error"
    },
    {
      "inputs": [
        {
          "internalType": "address",
          "name": "sender",
          "type": "address"
        }
      ],
      "name": "ERC721InvalidSender",
      "type": "error"
    },
    {
      "inputs": [
        {
          "internalType": "uint256",
          "name": "tokenId",
          "type": "uint256"
        }
      ],
      "name": "ERC721NonexistentToken",
      "type": "error"
    },
    {
      "inputs": [
        {
          "internalType": "address",
          "name": "owner",
          "type": "address"
        }
      ],
      "name": "OwnableInvalidOwner",
      "type": "error"
    },
    {
      "inputs": [
        {
          "internalType": "address",
          "name": "account",
          "type": "address"
        }
      ],
      "name": "OwnableUnauthorizedAccount",
      "type": "error"
    },
    {
      "anonymous": false,
      "inputs": [
        {
          "indexed": true,
          "internalType": "address",
          "name": "owner",
          "type": "address"
        },
        {
          "indexed": true,
          "internalType": "address",
          "name": "approved",
          "type": "address"
        },
        {
          "indexed": true,
          "internalType": "uint256",
          "name": "tokenId",
          "type": "uint256"
        }
      ],
      "name": "Approval",
      "type": "event"
    },
    {
      "anonymous": false,
      "inputs": [
        {
          "indexed": true,
          "internalType": "address",
          "name": "owner",
          "type": "address"
        },
        {
          "indexed": true,
          "internalType": "address",
          "name": "operator",
          "type": "address"
        },
        {
          "indexed": false,
          "internalType": "bool",
          "name": "approved",
          "type": "bool"
        }
      ],
      "name": "ApprovalForAll",
      "type": "event"
    },
    {
      "anonymous": false,
      "inputs": [
        {
          "indexed": false,
          "internalType": "uint256",
          "name": "_fromTokenId",
          "type": "uint256"
        },
        {
          "indexed": false,
          "internalType": "uint256",
          "name": "_toTokenId",
          "type": "uint256"
        }
      ],
      "name": "BatchMetadataUpdate",
      "type": "event"
    },
    {
      "anonymous": false,
      "inputs": [
        {
          "indexed": false,
          "internalType": "uint256",
          "name": "_tokenId",
          "type": "uint256"
        }
      ],
      "name": "MetadataUpdate",
      "type": "event"
    },
    {
      "anonymous": false,
      "inputs": [
        {
          "indexed": true,
          "internalType": "address",
          "name": "operator",
          "type": "address"
        }
      ],
      "name": "OperatorAdded",
      "type": "event"
    },
    {
      "anonymous": false,
      "inputs": [
        {
          "indexed": true,
          "internalType": "address",
          "name": "operator",
          "type": "address"
        }
      ],
      "name": "OperatorRemoved",
      "type": "event"
    },
    {
      "anonymous": false,
      "inputs": [
        {
          "indexed": true,
          "internalType": "address",
          "name": "previousOwner",
          "type": "address"
        },
        {
          "indexed": true,
          "internalType": "address",
          "name": "newOwner",
          "type": "address"
        }
      ],
      "name": "OwnershipTransferred",
      "type": "event"
    },
    {
      "anonymous": false,
      "inputs": [
        {
          "indexed": false,
          "internalType": "uint256",
          "name": "tokenId",
          "type": "uint256"
        },
        {
          "indexed": false,
          "internalType": "address",
          "name": "verifier",
          "type": "address"
        }
      ],
      "name": "TokenVerified",
      "type": "event"
    },
    {
      "anonymous": false,
      "inputs": [
        {
          "indexed": true,
          "internalType": "address",
          "name": "from",
          "type": "address"
        },
        {
          "indexed": true,
          "internalType": "address",
          "name": "to",
          "type": "address"
        },
        {
          "indexed": true,
          "internalType": "uint256",
          "name": "tokenId",
          "type": "uint256"
        }
      ],
      "name": "Transfer",
      "type": "event"
    },
    {
      "inputs": [
        {
          "internalType": "address",
          "name": "operator",
          "type": "address"
        }
      ],
      "name": "addOperator",
      "outputs": [],
      "stateMutability": "nonpayable",
      "type": "function"
    },
    {
      "inputs": [
        {
          "internalType": "address",
          "name": "to",
          "type": "address"
        },
        {
          "internalType": "uint256",
          "name": "tokenId",
          "type": "uint256"
        }
      ],
      "name": "approve",
      "outputs": [],
      "stateMutability": "nonpayable",
      "type": "function"
    },
    {
      "inputs": [
        {
          "internalType": "address",
          "name": "owner",
          "type": "address"
        }
      ],
      "name": "balanceOf",
      "outputs": [
        {
          "internalType": "uint256",
          "name": "",
          "type": "uint256"
        }
      ],
      "stateMutability": "view",
      "type": "function"
    },
    {
      "inputs": [
        {
          "internalType": "address[]",
          "name": "to",
          "type": "address[]"
        },
        {
          "internalType": "uint256[]",
          "name": "tokenIds",
          "type": "uint256[]"
        },
        {
          "internalType": "string[]",
          "name": "tokenURIs",
          "type": "string[]"
        }
      ],
      "name": "batchMintWithMetadata",
      "outputs": [],
      "stateMutability": "nonpayable",
      "type": "function"
    },
    {
      "inputs": [
        {
          "internalType": "uint256",
          "name": "tokenId",
          "type": "uint256"
        }
      ],
      "name": "getApproved",
      "outputs": [
        {
          "internalType": "address",
          "name": "",
          "type": "address"
        }
      ],
      "stateMutability": "view",
      "type": "function"
    },
    {
      "inputs": [
        {
          "internalType": "uint256",
          "name": "tokenId",
          "type": "uint256"
        }
      ],
      "name": "getVerifiers",
      "outputs": [
        {
          "internalType": "address[]",
          "name": "",
          "type": "address[]"
        }
      ],
      "stateMutability": "view",
      "type": "function"
    },
    {
      "inputs": [
        {
          "internalType": "address",
          "name": "owner",
          "type": "address"
        },
        {
          "internalType": "address",
          "name": "operator",
          "type": "address"
        }
      ],
      "name": "isApprovedForAll",
      "outputs": [
        {
          "internalType": "bool",
          "name": "",
          "type": "bool"
        }
      ],
      "stateMutability": "view",
      "type": "function"
    },
    {
      "inputs": [
        {
          "internalType": "address",
          "name": "operator",
          "type": "address"
        }
      ],
      "name": "isOperator",
      "outputs": [
        {
          "internalType": "bool",
          "name": "",
          "type": "bool"
        }
      ],
      "stateMutability": "view",
      "type": "function"
    },
    {
      "inputs": [
        {
          "internalType": "address",
          "name": "verifier",
          "type": "address"
        },
        {
          "internalType": "uint256",
          "name": "tokenId",
          "type": "uint256"
        }
      ],
      "name": "isVerified",
      "outputs": [
        {
          "internalType": "bool",
          "name": "",
          "type": "bool"
        }
      ],
      "stateMutability": "view",
      "type": "function"
    },
    {
      "inputs": [
        {
          "internalType": "address",
          "name": "verifier",
          "type": "address"
        },
        {
          "internalType": "uint256",
          "name": "tokenId",
          "type": "uint256"
        }
      ],
      "name": "isVerify",
      "outputs": [
        {
          "internalType": "bool",
          "name": "",
          "type": "bool"
        }
      ],
      "stateMutability": "view",
      "type": "function"
    },
    {
      "inputs": [
        {
          "internalType": "address",
          "name": "to",
          "type": "address"
        },
        {
          "internalType": "uint256",
          "name": "tokenId",
          "type": "uint256"
        },
        {
          "internalType": "string",
          "name": "tokenURI",
          "type": "string"
        }
      ],
      "name": "mintWithMetadata",
      "outputs": [],
      "stateMutability": "nonpayable",
      "type": "function"
    },
    {
      "inputs": [],
      "name": "name",
      "outputs": [
        {
          "internalType": "string",
          "name": "",
          "type": "string"
        }
      ],
      "stateMutability": "view",
      "type": "function"
    },
    {
      "inputs": [],
      "name": "owner",
      "outputs": [
        {
          "internalType": "address",
          "name": "",
          "type": "address"
        }
      ],
      "stateMutability": "view",
      "type": "function"
    },
    {
      "inputs": [
        {
          "internalType": "uint256",
          "name": "tokenId",
          "type": "uint256"
        }
      ],
      "name": "ownerOf",
      "outputs": [
        {
          "internalType": "address",
          "name": "",
          "type": "address"
        }
      ],
      "stateMutability": "view",
      "type": "function"
    },
    {
      "inputs": [
        {
          "internalType": "address",
          "name": "operator",
          "type": "address"
        }
      ],
      "name": "removeOperator",
      "outputs": [],
      "stateMutability": "nonpayable",
      "type": "function"
    },
    {
      "inputs": [],
      "name": "renounceOwnership",
      "outputs": [],
      "stateMutability": "nonpayable",
      "type": "function"
    },
    {
      "inputs": [
        {
          "internalType": "address",
          "name": "from",
          "type": "address"
        },
        {
          "internalType": "address",
          "name": "to",
          "type": "address"
        },
        {
          "internalType": "uint256",
          "name": "tokenId",
          "type": "uint256"
        }
      ],
      "name": "safeTransferFrom",
      "outputs": [],
      "stateMutability": "nonpayable",
      "type": "function"
    },
    {
      "inputs": [
        {
          "internalType": "address",
          "name": "from",
          "type": "address"
        },
        {
          "internalType": "address",
          "name": "to",
          "type": "address"
        },
        {
          "internalType": "uint256",
          "name": "tokenId",
          "type": "uint256"
        },
        {
          "internalType": "bytes",
          "name": "data",
          "type": "bytes"
        }
      ],
      "name": "safeTransferFrom",
      "outputs": [],
      "stateMutability": "nonpayable",
      "type": "function"
    },
    {
      "inputs": [
        {
          "internalType": "address",
          "name": "operator",
          "type": "address"
        },
        {
          "internalType": "bool",
          "name": "approved",
          "type": "bool"
        }
      ],
      "name": "setApprovalForAll",
      "outputs": [],
      "stateMutability": "nonpayable",
      "type": "function"
    },
    {
      "inputs": [
        {
          "internalType": "string",
          "name": "baseURI",
          "type": "string"
        }
      ],
      "name": "setBaseURI",
      "outputs": [],
      "stateMutability": "nonpayable",
      "type": "function"
    },
    {
      "inputs": [
        {
          "internalType": "bytes4",
          "name": "interfaceId",
          "type": "bytes4"
        }
      ],
      "name": "supportsInterface",
      "outputs": [
        {
          "internalType": "bool",
          "name": "",
          "type": "bool"
        }
      ],
      "stateMutability": "view",
      "type": "function"
    },
    {
      "inputs": [],
      "name": "symbol",
      "outputs": [
        {
          "internalType": "string",
          "name": "",
          "type": "string"
        }
      ],
      "stateMutability": "view",
      "type": "function"
    },
    {
      "inputs": [
        {
          "internalType": "uint256",
          "name": "tokenId",
          "type": "uint256"
        }
      ],
      "name": "tokenURI",
      "outputs": [
        {
          "internalType": "string",
          "name": "",
          "type": "string"
        }
      ],
      "stateMutability": "view",
      "type": "function"
    },
    {
      "inputs": [],
      "name": "totalSupply",
      "outputs": [
        {
          "internalType": "uint256",
          "name": "",
          "type": "uint256"
        }
      ],
      "stateMutability": "view",
      "type": "function"
    },
    {
      "inputs": [
        {
          "internalType": "address",
          "name": "from",
          "type": "address"
        },
        {
          "internalType": "address",
          "name": "to",
          "type": "address"
        },
        {
          "internalType": "uint256",
          "name": "tokenId",
          "type": "uint256"
        }
      ],
      "name": "transferFrom",
      "outputs": [],
      "stateMutability": "nonpayable",
      "type": "function"
    },
    {
      "inputs": [
        {
          "internalType": "address",
          "name": "newOwner",
          "type": "address"
        }
      ],
      "name": "transferOwnership",
      "outputs": [],
      "stateMutability": "nonpayable",
      "type": "function"
    },
    {
      "inputs": [
        {
          "internalType": "uint256",
          "name": "tokenId",
          "type": "uint256"
        }
      ],
      "name": "verify",
      "outputs": [],
      "stateMutability": "nonpayable",
      "type": "function"
    }
  ],
  "bytecode": "0x60806040523480156200001157600080fd5b5060405162002b3938038062002b398339810160408190526200003491620001c1565b3383836000620000458382620002e1565b506001620000548282620002e1565b5050506001600160a01b0381166200008657604051631e4fbdf760e01b81526000600482015260240160405180910390fd5b6200009181620000aa565b50600c620000a08282620002e1565b50505050620003ad565b600780546001600160a01b038381166001600160a01b0319831681179093556040519116919082907f8be0079c531659141344cd1fd0a4f28419497f9722a3daafe3b4186f6b6457e090600090a35050565b634e487b7160e01b600052604160045260246000fd5b600082601f8301126200012457600080fd5b81516001600160401b0380821115620001415762000141620000fc565b604051601f8301601f19908116603f011681019082821181831017156200016c576200016c620000fc565b816040528381526020925086838588010111156200018957600080fd5b600091505b83821015620001ad57858201830151818301840152908201906200018e565b600093810190920192909252949350505050565b600080600060608486031215620001d757600080fd5b83516001600160401b0380821115620001ef57600080fd5b620001fd8783880162000112565b945060208601519150808211156200021457600080fd5b620002228783880162000112565b935060408601519150808211156200023957600080fd5b50620002488682870162000112565b9150509250925092565b600181811c908216806200026757607f821691505b6020821081036200028857634e487b7160e01b600052602260045260246000fd5b50919050565b601f821115620002dc57600081815260208120601f850160051c81016020861015620002b75750805b601f850160051c820191505b81811015620002d857828155600101620002c3565b5050505b505050565b81516001600160401b03811115620002fd57620002fd620000fc565b62000315816200030e845462000252565b846200028e565b602080601f8311600181146200034d5760008415620003345750858301515b600019600386901b1c1916600185901b178555620002d8565b600085815260208120601f198616915b828110156200037e578886015182559484019460019091019084016200035d565b50858210156200039d5787850151600019600388901b60f8161c191681555b5050505050600190811b01905550565b61277c80620003bd6000396000f3fe608060405234801561001057600080fd5b50600436106101b95760003560e01c8063715018a6116100f9578063ac8a584a11610097578063df65d05711610071578063df65d0571461025a578063e985e9c5146103fe578063f2fde38b14610447578063f5aa29c81461045a57600080fd5b8063ac8a584a146103c5578063b88d4fde146103d8578063c87b56dd146103eb57600080fd5b806395d89b41116100d357806395d89b411461038457806397a0906c1461038c5780639870d7fe1461039f578063a22cb465146103b257600080fd5b8063715018a61461034b5780638753367f146103535780638da5cb5b1461036657600080fd5b806323b872dd1161016657806355f804b31161014057806355f804b3146102d95780636352211e146102ec5780636d70f7ae146102ff57806370a082311461033857600080fd5b806323b872dd146102a05780632d63f728146102b357806342842e0e146102c657600080fd5b8063095ea7b311610197578063095ea7b31461023357806318160ddd146102485780631a2097761461025a57600080fd5b806301ffc9a7146101be57806306fdde03146101e6578063081812fc146101fb575b600080fd5b6101d16101cc366004611e39565b61047a565b60405190151581526020015b60405180910390f35b6101ee6104d6565b6040516101dd9190611ec4565b61020e610209366004611ed7565b610568565b60405173ffffffffffffffffffffffffffffffffffffffff90911681526020016101dd565b610246610241366004611f19565b61059e565b005b600b545b6040519081526020016101dd565b6101d1610268366004611f19565b73ffffffffffffffffffffffffffffffffffffffff919091166000908152600960209081526040808320938352929052205460ff1690565b6102466102ae366004611f43565b6105ad565b6102466102c1366004612093565b6106a3565b6102466102d4366004611f43565b610788565b6102466102e73660046120ea565b6107a8565b61020e6102fa366004611ed7565b61086b565b6101d161030d36600461211f565b73ffffffffffffffffffffffffffffffffffffffff166000908152600a602052604090205460ff1690565b61024c61034636600461211f565b610876565b6102466108f1565b610246610361366004611ed7565b610905565b60075473ffffffffffffffffffffffffffffffffffffffff1661020e565b6101ee610ac5565b61024661039a366004612249565b610ad4565b6102466103ad36600461211f565b610d0d565b6102466103c0366004612323565b610e1c565b6102466103d336600461211f565b610e27565b6102466103e636600461235f565b610f32565b6101ee6103f9366004611ed7565b610f49565b6101d161040c3660046123db565b73ffffffffffffffffffffffffffffffffffffffff918216600090815260056020908152604080832093909416825291909152205460ff1690565b61024661045536600461211f565b61104d565b61046d610468366004611ed7565b6110b1565b6040516101dd919061240e565b60007fffffffff0000000000000000000000000000000000000000000000000000000082167f490649060000000000000000000000000000000000000000000000000000000014806104d057506104d08261112a565b92915050565b6060600080546104e590612468565b80601f016020809104026020016040519081016040528092919081815260200182805461051190612468565b801561055e5780601f106105335761010080835404028352916020019161055e565b820191906000526020600020905b81548152906001019060200180831161054157829003601f168201915b5050505050905090565b60006105738261120d565b5060008281526004602052604090205473ffffffffffffffffffffffffffffffffffffffff166104d0565b6105a982823361126c565b5050565b73ffffffffffffffffffffffffffffffffffffffff8216610602576040517f64a0ae92000000000000000000000000000000000000000000000000000000008152600060048201526024015b60405180910390fd5b600061060f838333611279565b90508373ffffffffffffffffffffffffffffffffffffffff168173ffffffffffffffffffffffffffffffffffffffff161461069d576040517f64283d7b00000000000000000000000000000000000000000000000000000000815273ffffffffffffffffffffffffffffffffffffffff808616600483015260248201849052821660448201526064016105f9565b50505050565b336106c360075473ffffffffffffffffffffffffffffffffffffffff1690565b73ffffffffffffffffffffffffffffffffffffffff1614806106f45750336000908152600a602052604090205460ff165b61075a576040517f08c379a000000000000000000000000000000000000000000000000000000000815260206004820152601f60248201527f43616c6c6572206973206e6f74206f776e6572206f72206f70657261746f720060448201526064016105f9565b61076483836113f6565b61076e82826114a7565b600b805490600061077e836124bb565b9190505550505050565b6107a383838360405180602001604052806000815250610f32565b505050565b336107c860075473ffffffffffffffffffffffffffffffffffffffff1690565b73ffffffffffffffffffffffffffffffffffffffff1614806107f95750336000908152600a602052604090205460ff165b61085f576040517f08c379a000000000000000000000000000000000000000000000000000000000815260206004820152601f60248201527f43616c6c6572206973206e6f74206f776e6572206f72206f70657261746f720060448201526064016105f9565b600c6105a98282612568565b60006104d08261120d565b600073ffffffffffffffffffffffffffffffffffffffff82166108c8576040517f89c62b64000000000000000000000000000000000000000000000000000000008152600060048201526024016105f9565b5073ffffffffffffffffffffffffffffffffffffffff1660009081526003602052604090205490565b6108f96114f7565b610903600061154a565b565b336000908152600a602052604090205460ff1661097e576040517f08c379a000000000000000000000000000000000000000000000000000000000815260206004820152601960248201527f43616c6c6572206973206e6f7420616e206f70657261746f720000000000000060448201526064016105f9565b33600090815260096020908152604080832084845290915290205460ff1615610a03576040517f08c379a000000000000000000000000000000000000000000000000000000000815260206004820152601a60248201527f416c72656164792076657269666965642062792073656e64657200000000000060448201526064016105f9565b60008181526008602090815260408083208054600180820183559185528385200180547fffffffffffffffffffffffff000000000000000000000000000000000000000016339081179091558085526009845282852086865284529382902080547fffffffffffffffffffffffffffffffffffffffffffffffffffffffffffffff001690911790558051848152918201929092527f4a3d1907355e486fa9dec825eb6c9381047283bfe4872c21db8adbffab9168a6910160405180910390a150565b6060600180546104e590612468565b33610af460075473ffffffffffffffffffffffffffffffffffffffff1690565b73ffffffffffffffffffffffffffffffffffffffff161480610b255750336000908152600a602052604090205460ff165b610b8b576040517f08c379a000000000000000000000000000000000000000000000000000000000815260206004820152601f60248201527f43616c6c6572206973206e6f74206f776e6572206f72206f70657261746f720060448201526064016105f9565b8151835114610bf6576040517f08c379a000000000000000000000000000000000000000000000000000000000815260206004820152601860248201527f4d69736d61746368656420696e707574206c656e67746873000000000000000060448201526064016105f9565b8051835114610c61576040517f08c379a000000000000000000000000000000000000000000000000000000000815260206004820152601860248201527f4d69736d61746368656420696e707574206c656e67746873000000000000000060448201526064016105f9565b60005b835181101561069d57610ca9848281518110610c8257610c82612682565b6020026020010151848381518110610c9c57610c9c612682565b60200260200101516113f6565b610ce5838281518110610cbe57610cbe612682565b6020026020010151838381518110610cd857610cd8612682565b60200260200101516114a7565b600b8054906000610cf5836124bb565b91905055508080610d05906124bb565b915050610c64565b610d156114f7565b73ffffffffffffffffffffffffffffffffffffffff81166000908152600a602052604090205460ff1615610da5576040517f08c379a000000000000000000000000000000000000000000000000000000000815260206004820152601e60248201527f4164647265737320697320616c726561647920616e206f70657261746f72000060448201526064016105f9565b73ffffffffffffffffffffffffffffffffffffffff81166000818152600a602052604080822080547fffffffffffffffffffffffffffffffffffffffffffffffffffffffffffffff00166001179055517fac6fa858e9350a46cec16539926e0fde25b7629f84b5a72bffaae4df888ae86d9190a250565b6105a93383836115c1565b610e2f6114f7565b73ffffffffffffffffffffffffffffffffffffffff81166000908152600a602052604090205460ff16610ebe576040517f08c379a000000000000000000000000000000000000000000000000000000000815260206004820152601a60248201527f41646472657373206973206e6f7420616e206f70657261746f7200000000000060448201526064016105f9565b73ffffffffffffffffffffffffffffffffffffffff81166000818152600a602052604080822080547fffffffffffffffffffffffffffffffffffffffffffffffffffffffffffffff00169055517f80c0b871b97b595b16a7741c1b06fed0c6f6f558639f18ccbce50724325dc40d9190a250565b610f3d8484846105ad565b61069d848484846116be565b6060610f548261120d565b5060008281526006602052604081208054610f6e90612468565b80601f0160208091040260200160405190810160405280929190818152602001828054610f9a90612468565b8015610fe75780601f10610fbc57610100808354040283529160200191610fe7565b820191906000526020600020905b815481529060010190602001808311610fca57829003601f168201915b505050505090506000610ff86118b5565b9050805160000361100a575092915050565b81511561103c5780826040516020016110249291906126b1565b60405160208183030381529060405292505050919050565b611045846118c4565b949350505050565b6110556114f7565b73ffffffffffffffffffffffffffffffffffffffff81166110a5576040517f1e4fbdf7000000000000000000000000000000000000000000000000000000008152600060048201526024016105f9565b6110ae8161154a565b50565b60008181526008602090815260409182902080548351818402810184019094528084526060939283018282801561111e57602002820191906000526020600020905b815473ffffffffffffffffffffffffffffffffffffffff1681526001909101906020018083116110f3575b50505050509050919050565b60007fffffffff0000000000000000000000000000000000000000000000000000000082167f80ac58cd0000000000000000000000000000000000000000000000000000000014806111bd57507fffffffff0000000000000000000000000000000000000000000000000000000082167f5b5e139f00000000000000000000000000000000000000000000000000000000145b806104d057507f01ffc9a7000000000000000000000000000000000000000000000000000000007fffffffff000000000000000000000000000000000000000000000000000000008316146104d0565b60008181526002602052604081205473ffffffffffffffffffffffffffffffffffffffff16806104d0576040517f7e273289000000000000000000000000000000000000000000000000000000008152600481018490526024016105f9565b6107a3838383600161192c565b60008281526002602052604081205473ffffffffffffffffffffffffffffffffffffffff908116908316156112b3576112b3818486611af7565b73ffffffffffffffffffffffffffffffffffffffff811615611329576112dd60008560008061192c565b73ffffffffffffffffffffffffffffffffffffffff8116600090815260036020526040902080547fffffffffffffffffffffffffffffffffffffffffffffffffffffffffffffffff0190555b73ffffffffffffffffffffffffffffffffffffffff8516156113725773ffffffffffffffffffffffffffffffffffffffff85166000908152600360205260409020805460010190555b60008481526002602052604080822080547fffffffffffffffffffffffff00000000000000000000000000000000000000001673ffffffffffffffffffffffffffffffffffffffff89811691821790925591518793918516917fddf252ad1be2c89b69c2b068fc378daa952ba7f163c4a11628f55a4df523b3ef91a4949350505050565b73ffffffffffffffffffffffffffffffffffffffff8216611446576040517f64a0ae92000000000000000000000000000000000000000000000000000000008152600060048201526024016105f9565b600061145483836000611279565b905073ffffffffffffffffffffffffffffffffffffffff8116156107a3576040517f73c6ac6e000000000000000000000000000000000000000000000000000000008152600060048201526024016105f9565b60008281526006602052604090206114bf8282612568565b506040518281527ff8e1a15aba9398e019f0b49df1a4fde98ee17ae345cb5f6b5e2c27f5033e8ce79060200160405180910390a15050565b60075473ffffffffffffffffffffffffffffffffffffffff163314610903576040517f118cdaa70000000000000000000000000000000000000000000000000000000081523360048201526024016105f9565b6007805473ffffffffffffffffffffffffffffffffffffffff8381167fffffffffffffffffffffffff0000000000000000000000000000000000000000831681179093556040519116919082907f8be0079c531659141344cd1fd0a4f28419497f9722a3daafe3b4186f6b6457e090600090a35050565b73ffffffffffffffffffffffffffffffffffffffff8216611626576040517f5b08ba1800000000000000000000000000000000000000000000000000000000815273ffffffffffffffffffffffffffffffffffffffff831660048201526024016105f9565b73ffffffffffffffffffffffffffffffffffffffff83811660008181526005602090815260408083209487168084529482529182902080547fffffffffffffffffffffffffffffffffffffffffffffffffffffffffffffff001686151590811790915591519182527f17307eab39ab6107e8899845ad3d59bd9653f200f220920489ca2b5937696c31910160405180910390a3505050565b73ffffffffffffffffffffffffffffffffffffffff83163b1561069d576040517f150b7a0200000000000000000000000000000000000000000000000000000000815273ffffffffffffffffffffffffffffffffffffffff84169063150b7a02906117339033908890879087906004016126e0565b6020604051808303816000875af192505050801561178c575060408051601f3d9081017fffffffffffffffffffffffffffffffffffffffffffffffffffffffffffffffe016820190925261178991810190612729565b60015b61181b573d8080156117ba576040519150601f19603f3d011682016040523d82523d6000602084013e6117bf565b606091505b508051600003611813576040517f64a0ae9200000000000000000000000000000000000000000000000000000000815273ffffffffffffffffffffffffffffffffffffffff851660048201526024016105f9565b805181602001fd5b7fffffffff0000000000000000000000000000000000000000000000000000000081167f150b7a0200000000000000000000000000000000000000000000000000000000146118ae576040517f64a0ae9200000000000000000000000000000000000000000000000000000000815273ffffffffffffffffffffffffffffffffffffffff851660048201526024016105f9565b5050505050565b6060600c80546104e590612468565b60606118cf8261120d565b5060006118da6118b5565b905060008151116118fa5760405180602001604052806000815250611925565b8061190484611ba7565b6040516020016119159291906126b1565b6040516020818303038152906040525b9392505050565b808061194d575073ffffffffffffffffffffffffffffffffffffffff821615155b15611aa257600061195d8461120d565b905073ffffffffffffffffffffffffffffffffffffffff8316158015906119b057508273ffffffffffffffffffffffffffffffffffffffff168173ffffffffffffffffffffffffffffffffffffffff1614155b80156119ef575073ffffffffffffffffffffffffffffffffffffffff80821660009081526005602090815260408083209387168352929052205460ff16155b15611a3e576040517fa9fbf51f00000000000000000000000000000000000000000000000000000000815273ffffffffffffffffffffffffffffffffffffffff841660048201526024016105f9565b8115611aa057838573ffffffffffffffffffffffffffffffffffffffff168273ffffffffffffffffffffffffffffffffffffffff167f8c5be1e5ebec7d5bd14f71427d1e84f3dd0314c0f7b2291e5b200ac8c7c3b92560405160405180910390a45b505b5050600090815260046020526040902080547fffffffffffffffffffffffff00000000000000000000000000000000000000001673ffffffffffffffffffffffffffffffffffffffff92909216919091179055565b611b02838383611c65565b6107a35773ffffffffffffffffffffffffffffffffffffffff8316611b56576040517f7e273289000000000000000000000000000000000000000000000000000000008152600481018290526024016105f9565b6040517f177e802f00000000000000000000000000000000000000000000000000000000815273ffffffffffffffffffffffffffffffffffffffff83166004820152602481018290526044016105f9565b60606000611bb483611d29565b600101905060008167ffffffffffffffff811115611bd457611bd4611f7f565b6040519080825280601f01601f191660200182016040528015611bfe576020820181803683370190505b5090508181016020015b7fffffffffffffffffffffffffffffffffffffffffffffffffffffffffffffffff017f3031323334353637383961626364656600000000000000000000000000000000600a86061a8153600a8504945084611c0857509392505050565b600073ffffffffffffffffffffffffffffffffffffffff83161580159061104557508273ffffffffffffffffffffffffffffffffffffffff168473ffffffffffffffffffffffffffffffffffffffff161480611cf3575073ffffffffffffffffffffffffffffffffffffffff80851660009081526005602090815260408083209387168352929052205460ff165b8061104557505060009081526004602052604090205473ffffffffffffffffffffffffffffffffffffffff908116911614919050565b6000807a184f03e93ff9f4daa797ed6e38ed64bf6a1f0100000000000000008310611d72577a184f03e93ff9f4daa797ed6e38ed64bf6a1f010000000000000000830492506040015b6d04ee2d6d415b85acef81000000008310611d9e576d04ee2d6d415b85acef8100000000830492506020015b662386f26fc100008310611dbc57662386f26fc10000830492506010015b6305f5e1008310611dd4576305f5e100830492506008015b6127108310611de857612710830492506004015b60648310611dfa576064830492506002015b600a83106104d05760010192915050565b7fffffffff00000000000000000000000000000000000000000000000000000000811681146110ae57600080fd5b600060208284031215611e4b57600080fd5b813561192581611e0b565b60005b83811015611e71578181015183820152602001611e59565b50506000910152565b60008151808452611e92816020860160208601611e56565b601f017fffffffffffffffffffffffffffffffffffffffffffffffffffffffffffffffe0169290920160200192915050565b6020815260006119256020830184611e7a565b600060208284031215611ee957600080fd5b5035919050565b803573ffffffffffffffffffffffffffffffffffffffff81168114611f1457600080fd5b919050565b60008060408385031215611f2c57600080fd5b611f3583611ef0565b946020939093013593505050565b600080600060608486031215611f5857600080fd5b611f6184611ef0565b9250611f6f60208501611ef0565b9150604084013590509250925092565b7f4e487b7100000000000000000000000000000000000000000000000000000000600052604160045260246000fd5b604051601f82017fffffffffffffffffffffffffffffffffffffffffffffffffffffffffffffffe016810167ffffffffffffffff81118282101715611ff557611ff5611f7f565b604052919050565b600067ffffffffffffffff83111561201757612017611f7f565b61204860207fffffffffffffffffffffffffffffffffffffffffffffffffffffffffffffffe0601f86011601611fae565b905082815283838301111561205c57600080fd5b828260208301376000602084830101529392505050565b600082601f83011261208457600080fd5b61192583833560208501611ffd565b6000806000606084860312156120a857600080fd5b6120b184611ef0565b925060208401359150604084013567ffffffffffffffff8111156120d457600080fd5b6120e086828701612073565b9150509250925092565b6000602082840312156120fc57600080fd5b813567ffffffffffffffff81111561211357600080fd5b61104584828501612073565b60006020828403121561213157600080fd5b61192582611ef0565b600067ffffffffffffffff82111561215457612154611f7f565b5060051b60200190565b600082601f83011261216f57600080fd5b8135602061218461217f8361213a565b611fae565b82815260059290921b840181019181810190868411156121a357600080fd5b8286015b848110156121be57803583529183019183016121a7565b509695505050505050565b600082601f8301126121da57600080fd5b813560206121ea61217f8361213a565b82815260059290921b8401810191818101908684111561220957600080fd5b8286015b848110156121be57803567ffffffffffffffff81111561222d5760008081fd5b61223b8986838b0101612073565b84525091830191830161220d565b60008060006060848603121561225e57600080fd5b833567ffffffffffffffff8082111561227657600080fd5b818601915086601f83011261228a57600080fd5b8135602061229a61217f8361213a565b82815260059290921b8401810191818101908a8411156122b957600080fd5b948201945b838610156122de576122cf86611ef0565b825294820194908201906122be565b975050870135925050808211156122f457600080fd5b6123008783880161215e565b9350604086013591508082111561231657600080fd5b506120e0868287016121c9565b6000806040838503121561233657600080fd5b61233f83611ef0565b91506020830135801515811461235457600080fd5b809150509250929050565b6000806000806080858703121561237557600080fd5b61237e85611ef0565b935061238c60208601611ef0565b925060408501359150606085013567ffffffffffffffff8111156123af57600080fd5b8501601f810187136123c057600080fd5b6123cf87823560208401611ffd565b91505092959194509250565b600080604083850312156123ee57600080fd5b6123f783611ef0565b915061240560208401611ef0565b90509250929050565b6020808252825182820181905260009190848201906040850190845b8181101561245c57835173ffffffffffffffffffffffffffffffffffffffff168352928401929184019160010161242a565b50909695505050505050565b600181811c9082168061247c57607f821691505b6020821081036124b5577f4e487b7100000000000000000000000000000000000000000000000000000000600052602260045260246000fd5b50919050565b60007fffffffffffffffffffffffffffffffffffffffffffffffffffffffffffffffff8203612513577f4e487b7100000000000000000000000000000000000000000000000000000000600052601160045260246000fd5b5060010190565b601f8211156107a357600081815260208120601f850160051c810160208610156125415750805b601f850160051c820191505b818110156125605782815560010161254d565b505050505050565b815167ffffffffffffffff81111561258257612582611f7f565b612596816125908454612468565b8461251a565b602080601f8311600181146125e957600084156125b35750858301515b7fffffffffffffffffffffffffffffffffffffffffffffffffffffffffffffffff600386901b1c1916600185901b178555612560565b6000858152602081207fffffffffffffffffffffffffffffffffffffffffffffffffffffffffffffffe08616915b8281101561263657888601518255948401946001909101908401612617565b508582101561267257878501517fffffffffffffffffffffffffffffffffffffffffffffffffffffffffffffffff600388901b60f8161c191681555b5050505050600190811b01905550565b7f4e487b7100000000000000000000000000000000000000000000000000000000600052603260045260246000fd5b600083516126c3818460208801611e56565b8351908301906126d7818360208801611e56565b01949350505050565b600073ffffffffffffffffffffffffffffffffffffffff80871683528086166020840152508360408301526080606083015261271f6080830184611e7a565b9695505050505050565b60006020828403121561273b57600080fd5b815161192581611e0b56fea26469706673582212204f18f84080dabfcbbeda7e2702dbde0c01c16b01ed0dd86c23d05af456361c9664736f6c63430008140033",
  "linkReferences": {},
  "deployedLinkReferences": {}
}