{
  "_format": "hh-sol-artifact-1",
  "contractName": "CerifiableNFT",
  "sourceName": "contracts/CerifiableNFT.sol",
  "abi": [
    {
      "inputs": [
        {
          "internalType": "string",
          "name": "name",
          "type": "string"
        },
        {
          "internalType": "string",
          "name": "symbol",
          "type": "string"
        },
        {
          "internalType": "string",
          "name": "baseURI",
          "type": "string"
        }
      ],
      "stateMutability": "nonpayable",
      "type": "constructor"
    },
    {
      "inputs": [
        {
          "internalType": "address",
          "name": "sender",
          "type": "address"
        },
        {
          "internalType": "uint256",
          "name": "tokenId",
          "type": "uint256"
        },
        {
          "internalType": "address",
          "name": "owner",
          "type": "address"
        }
      ],
      "name": "ERC721IncorrectOwner",
      "type": "error"
    },
    {
      "inputs": [
        {
          "internalType": "address",
          "name": "operator",
          "type": "address"
        },
        {
          "internalType": "uint256",
          "name": "tokenId",
          "type": "uint256"
        }
      ],
      "name": "ERC721InsufficientApproval",
      "type": "error"
    },
    {
      "inputs": [
        {
          "internalType": "address",
          "name": "approver",
          "type": "address"
        }
      ],
      "name": "ERC721InvalidApprover",
      "type": "error"
    },
    {
      "inputs": [
        {
          "internalType": "address",
          "name": "operator",
          "type": "address"
        }
      ],
      "name": "ERC721InvalidOperator",
      "type": "error"
    },
    {
      "inputs": [
        {
          "internalType": "address",
          "name": "owner",
          "type": "address"
        }
      ],
      "name": "ERC721InvalidOwner",
      "type": "error"
    },
    {
      "inputs": [
        {
          "internalType": "address",
          "name": "receiver",
          "type": "address"
        }
      ],
      "name": "ERC721InvalidReceiver",
      "type": "error"
    },
    {
      "inputs": [
        {
          "internalType": "address",
          "name": "sender",
          "type": "address"
        }
      ],
      "name": "ERC721InvalidSender",
      "type": "error"
    },
    {
      "inputs": [
        {
          "internalType": "uint256",
          "name": "tokenId",
          "type": "uint256"
        }
      ],
      "name": "ERC721NonexistentToken",
      "type": "error"
    },
    {
      "inputs": [
        {
          "internalType": "address",
          "name": "owner",
          "type": "address"
        }
      ],
      "name": "OwnableInvalidOwner",
      "type": "error"
    },
    {
      "inputs": [
        {
          "internalType": "address",
          "name": "account",
          "type": "address"
        }
      ],
      "name": "OwnableUnauthorizedAccount",
      "type": "error"
    },
    {
      "anonymous": false,
      "inputs": [
        {
          "indexed": true,
          "internalType": "address",
          "name": "owner",
          "type": "address"
        },
        {
          "indexed": true,
          "internalType": "address",
          "name": "approved",
          "type": "address"
        },
        {
          "indexed": true,
          "internalType": "uint256",
          "name": "tokenId",
          "type": "uint256"
        }
      ],
      "name": "Approval",
      "type": "event"
    },
    {
      "anonymous": false,
      "inputs": [
        {
          "indexed": true,
          "internalType": "address",
          "name": "owner",
          "type": "address"
        },
        {
          "indexed": true,
          "internalType": "address",
          "name": "operator",
          "type": "address"
        },
        {
          "indexed": false,
          "internalType": "bool",
          "name": "approved",
          "type": "bool"
        }
      ],
      "name": "ApprovalForAll",
      "type": "event"
    },
    {
      "anonymous": false,
      "inputs": [
        {
          "indexed": false,
          "internalType": "uint256",
          "name": "_fromTokenId",
          "type": "uint256"
        },
        {
          "indexed": false,
          "internalType": "uint256",
          "name": "_toTokenId",
          "type": "uint256"
        }
      ],
      "name": "BatchMetadataUpdate",
      "type": "event"
    },
    {
      "anonymous": false,
      "inputs": [
        {
          "indexed": false,
          "internalType": "uint256",
          "name": "_tokenId",
          "type": "uint256"
        }
      ],
      "name": "MetadataUpdate",
      "type": "event"
    },
    {
      "anonymous": false,
      "inputs": [
        {
          "indexed": true,
          "internalType": "address",
          "name": "operator",
          "type": "address"
        }
      ],
      "name": "OperatorAdded",
      "type": "event"
    },
    {
      "anonymous": false,
      "inputs": [
        {
          "indexed": true,
          "internalType": "address",
          "name": "operator",
          "type": "address"
        }
      ],
      "name": "OperatorRemoved",
      "type": "event"
    },
    {
      "anonymous": false,
      "inputs": [
        {
          "indexed": true,
          "internalType": "address",
          "name": "previousOwner",
          "type": "address"
        },
        {
          "indexed": true,
          "internalType": "address",
          "name": "newOwner",
          "type": "address"
        }
      ],
      "name": "OwnershipTransferred",
      "type": "event"
    },
    {
      "anonymous": false,
      "inputs": [
        {
          "indexed": false,
          "internalType": "uint256",
          "name": "tokenId",
          "type": "uint256"
        },
        {
          "indexed": false,
          "internalType": "address",
          "name": "verifier",
          "type": "address"
        }
      ],
      "name": "TokenVerified",
      "type": "event"
    },
    {
      "anonymous": false,
      "inputs": [
        {
          "indexed": true,
          "internalType": "address",
          "name": "from",
          "type": "address"
        },
        {
          "indexed": true,
          "internalType": "address",
          "name": "to",
          "type": "address"
        },
        {
          "indexed": true,
          "internalType": "uint256",
          "name": "tokenId",
          "type": "uint256"
        }
      ],
      "name": "Transfer",
      "type": "event"
    },
    {
      "inputs": [
        {
          "internalType": "address",
          "name": "operator",
          "type": "address"
        }
      ],
      "name": "addOperator",
      "outputs": [],
      "stateMutability": "nonpayable",
      "type": "function"
    },
    {
      "inputs": [
        {
          "internalType": "address",
          "name": "to",
          "type": "address"
        },
        {
          "internalType": "uint256",
          "name": "tokenId",
          "type": "uint256"
        }
      ],
      "name": "approve",
      "outputs": [],
      "stateMutability": "nonpayable",
      "type": "function"
    },
    {
      "inputs": [
        {
          "internalType": "address",
          "name": "owner",
          "type": "address"
        }
      ],
      "name": "balanceOf",
      "outputs": [
        {
          "internalType": "uint256",
          "name": "",
          "type": "uint256"
        }
      ],
      "stateMutability": "view",
      "type": "function"
    },
    {
      "inputs": [
        {
          "internalType": "address[]",
          "name": "to",
          "type": "address[]"
        },
        {
          "internalType": "uint256[]",
          "name": "tokenIds",
          "type": "uint256[]"
        },
        {
          "internalType": "string[]",
          "name": "tokenURIs",
          "type": "string[]"
        }
      ],
      "name": "batchMintWithMetadata",
      "outputs": [],
      "stateMutability": "nonpayable",
      "type": "function"
    },
    {
      "inputs": [
        {
          "internalType": "uint256",
          "name": "tokenId",
          "type": "uint256"
        }
      ],
      "name": "getApproved",
      "outputs": [
        {
          "internalType": "address",
          "name": "",
          "type": "address"
        }
      ],
      "stateMutability": "view",
      "type": "function"
    },
    {
      "inputs": [
        {
          "internalType": "uint256",
          "name": "tokenId",
          "type": "uint256"
        }
      ],
      "name": "getVerifiers",
      "outputs": [
        {
          "internalType": "address[]",
          "name": "",
          "type": "address[]"
        }
      ],
      "stateMutability": "view",
      "type": "function"
    },
    {
      "inputs": [
        {
          "internalType": "address",
          "name": "owner",
          "type": "address"
        },
        {
          "internalType": "address",
          "name": "operator",
          "type": "address"
        }
      ],
      "name": "isApprovedForAll",
      "outputs": [
        {
          "internalType": "bool",
          "name": "",
          "type": "bool"
        }
      ],
      "stateMutability": "view",
      "type": "function"
    },
    {
      "inputs": [
        {
          "internalType": "address",
          "name": "operator",
          "type": "address"
        }
      ],
      "name": "isOperator",
      "outputs": [
        {
          "internalType": "bool",
          "name": "",
          "type": "bool"
        }
      ],
      "stateMutability": "view",
      "type": "function"
    },
    {
      "inputs": [
        {
          "internalType": "address",
          "name": "to",
          "type": "address"
        },
        {
          "internalType": "uint256",
          "name": "tokenId",
          "type": "uint256"
        },
        {
          "internalType": "string",
          "name": "tokenURI",
          "type": "string"
        }
      ],
      "name": "mintWithMetadata",
      "outputs": [],
      "stateMutability": "nonpayable",
      "type": "function"
    },
    {
      "inputs": [],
      "name": "name",
      "outputs": [
        {
          "internalType": "string",
          "name": "",
          "type": "string"
        }
      ],
      "stateMutability": "view",
      "type": "function"
    },
    {
      "inputs": [],
      "name": "owner",
      "outputs": [
        {
          "internalType": "address",
          "name": "",
          "type": "address"
        }
      ],
      "stateMutability": "view",
      "type": "function"
    },
    {
      "inputs": [
        {
          "internalType": "uint256",
          "name": "tokenId",
          "type": "uint256"
        }
      ],
      "name": "ownerOf",
      "outputs": [
        {
          "internalType": "address",
          "name": "",
          "type": "address"
        }
      ],
      "stateMutability": "view",
      "type": "function"
    },
    {
      "inputs": [
        {
          "internalType": "address",
          "name": "operator",
          "type": "address"
        }
      ],
      "name": "removeOperator",
      "outputs": [],
      "stateMutability": "nonpayable",
      "type": "function"
    },
    {
      "inputs": [],
      "name": "renounceOwnership",
      "outputs": [],
      "stateMutability": "nonpayable",
      "type": "function"
    },
    {
      "inputs": [
        {
          "internalType": "address",
          "name": "from",
          "type": "address"
        },
        {
          "internalType": "address",
          "name": "to",
          "type": "address"
        },
        {
          "internalType": "uint256",
          "name": "tokenId",
          "type": "uint256"
        }
      ],
      "name": "safeTransferFrom",
      "outputs": [],
      "stateMutability": "nonpayable",
      "type": "function"
    },
    {
      "inputs": [
        {
          "internalType": "address",
          "name": "from",
          "type": "address"
        },
        {
          "internalType": "address",
          "name": "to",
          "type": "address"
        },
        {
          "internalType": "uint256",
          "name": "tokenId",
          "type": "uint256"
        },
        {
          "internalType": "bytes",
          "name": "data",
          "type": "bytes"
        }
      ],
      "name": "safeTransferFrom",
      "outputs": [],
      "stateMutability": "nonpayable",
      "type": "function"
    },
    {
      "inputs": [
        {
          "internalType": "address",
          "name": "operator",
          "type": "address"
        },
        {
          "internalType": "bool",
          "name": "approved",
          "type": "bool"
        }
      ],
      "name": "setApprovalForAll",
      "outputs": [],
      "stateMutability": "nonpayable",
      "type": "function"
    },
    {
      "inputs": [
        {
          "internalType": "string",
          "name": "baseURI",
          "type": "string"
        }
      ],
      "name": "setBaseURI",
      "outputs": [],
      "stateMutability": "nonpayable",
      "type": "function"
    },
    {
      "inputs": [
        {
          "internalType": "bytes4",
          "name": "interfaceId",
          "type": "bytes4"
        }
      ],
      "name": "supportsInterface",
      "outputs": [
        {
          "internalType": "bool",
          "name": "",
          "type": "bool"
        }
      ],
      "stateMutability": "view",
      "type": "function"
    },
    {
      "inputs": [],
      "name": "symbol",
      "outputs": [
        {
          "internalType": "string",
          "name": "",
          "type": "string"
        }
      ],
      "stateMutability": "view",
      "type": "function"
    },
    {
      "inputs": [
        {
          "internalType": "uint256",
          "name": "tokenId",
          "type": "uint256"
        }
      ],
      "name": "tokenURI",
      "outputs": [
        {
          "internalType": "string",
          "name": "",
          "type": "string"
        }
      ],
      "stateMutability": "view",
      "type": "function"
    },
    {
      "inputs": [
        {
          "internalType": "address",
          "name": "from",
          "type": "address"
        },
        {
          "internalType": "address",
          "name": "to",
          "type": "address"
        },
        {
          "internalType": "uint256",
          "name": "tokenId",
          "type": "uint256"
        }
      ],
      "name": "transferFrom",
      "outputs": [],
      "stateMutability": "nonpayable",
      "type": "function"
    },
    {
      "inputs": [
        {
          "internalType": "address",
          "name": "newOwner",
          "type": "address"
        }
      ],
      "name": "transferOwnership",
      "outputs": [],
      "stateMutability": "nonpayable",
      "type": "function"
    },
    {
      "inputs": [
        {
          "internalType": "uint256",
          "name": "tokenId",
          "type": "uint256"
        }
      ],
      "name": "verify",
      "outputs": [],
      "stateMutability": "nonpayable",
      "type": "function"
    }
  ],
  "bytecode": "0x60806040523480156200001157600080fd5b50604051620029dc380380620029dc8339810160408190526200003491620001c1565b3383836000620000458382620002e1565b506001620000548282620002e1565b5050506001600160a01b0381166200008657604051631e4fbdf760e01b81526000600482015260240160405180910390fd5b6200009181620000aa565b50600a620000a08282620002e1565b50505050620003ad565b600780546001600160a01b038381166001600160a01b0319831681179093556040519116919082907f8be0079c531659141344cd1fd0a4f28419497f9722a3daafe3b4186f6b6457e090600090a35050565b634e487b7160e01b600052604160045260246000fd5b600082601f8301126200012457600080fd5b81516001600160401b0380821115620001415762000141620000fc565b604051601f8301601f19908116603f011681019082821181831017156200016c576200016c620000fc565b816040528381526020925086838588010111156200018957600080fd5b600091505b83821015620001ad57858201830151818301840152908201906200018e565b600093810190920192909252949350505050565b600080600060608486031215620001d757600080fd5b83516001600160401b0380821115620001ef57600080fd5b620001fd8783880162000112565b945060208601519150808211156200021457600080fd5b620002228783880162000112565b935060408601519150808211156200023957600080fd5b50620002488682870162000112565b9150509250925092565b600181811c908216806200026757607f821691505b6020821081036200028857634e487b7160e01b600052602260045260246000fd5b50919050565b601f821115620002dc57600081815260208120601f850160051c81016020861015620002b75750805b601f850160051c820191505b81811015620002d857828155600101620002c3565b5050505b505050565b81516001600160401b03811115620002fd57620002fd620000fc565b62000315816200030e845462000252565b846200028e565b602080601f8311600181146200034d5760008415620003345750858301515b600019600386901b1c1916600185901b178555620002d8565b600085815260208120601f198616915b828110156200037e578886015182559484019460019091019084016200035d565b50858210156200039d5787850151600019600388901b60f8161c191681555b5050505050600190811b01905550565b61261f80620003bd6000396000f3fe608060405234801561001057600080fd5b50600436106101985760003560e01c80638753367f116100e3578063ac8a584a1161008c578063e985e9c511610066578063e985e9c514610393578063f2fde38b146103dc578063f5aa29c8146103ef57600080fd5b8063ac8a584a1461035a578063b88d4fde1461036d578063c87b56dd1461038057600080fd5b806397a0906c116100bd57806397a0906c146103215780639870d7fe14610334578063a22cb4651461034757600080fd5b80638753367f146102e85780638da5cb5b146102fb57806395d89b411461031957600080fd5b806342842e0e116101455780636d70f7ae1161011f5780636d70f7ae1461028657806370a08231146102bf578063715018a6146102e057600080fd5b806342842e0e1461024d57806355f804b3146102605780636352211e1461027357600080fd5b8063095ea7b311610176578063095ea7b31461021257806323b872dd146102275780632d63f7281461023a57600080fd5b806301ffc9a71461019d57806306fdde03146101c5578063081812fc146101da575b600080fd5b6101b06101ab366004611cdc565b61040f565b60405190151581526020015b60405180910390f35b6101cd61046b565b6040516101bc9190611d67565b6101ed6101e8366004611d7a565b6104fd565b60405173ffffffffffffffffffffffffffffffffffffffff90911681526020016101bc565b610225610220366004611dbc565b610533565b005b610225610235366004611de6565b610542565b610225610248366004611f36565b610638565b61022561025b366004611de6565b610708565b61022561026e366004611f8d565b610723565b6101ed610281366004611d7a565b6107e6565b6101b0610294366004611fc2565b73ffffffffffffffffffffffffffffffffffffffff1660009081526009602052604090205460ff1690565b6102d26102cd366004611fc2565b6107f1565b6040519081526020016101bc565b61022561086c565b6102256102f6366004611d7a565b610880565b60075473ffffffffffffffffffffffffffffffffffffffff166101ed565b6101cd61097e565b61022561032f3660046120ec565b61098d565b610225610342366004611fc2565b610bb0565b6102256103553660046121c6565b610cbf565b610225610368366004611fc2565b610cca565b61022561037b366004612202565b610dd5565b6101cd61038e366004611d7a565b610dec565b6101b06103a136600461227e565b73ffffffffffffffffffffffffffffffffffffffff918216600090815260056020908152604080832093909416825291909152205460ff1690565b6102256103ea366004611fc2565b610ef0565b6104026103fd366004611d7a565b610f54565b6040516101bc91906122b1565b60007fffffffff0000000000000000000000000000000000000000000000000000000082167f49064906000000000000000000000000000000000000000000000000000000001480610465575061046582610fcd565b92915050565b60606000805461047a9061230b565b80601f01602080910402602001604051908101604052809291908181526020018280546104a69061230b565b80156104f35780601f106104c8576101008083540402835291602001916104f3565b820191906000526020600020905b8154815290600101906020018083116104d657829003601f168201915b5050505050905090565b6000610508826110b0565b5060008281526004602052604090205473ffffffffffffffffffffffffffffffffffffffff16610465565b61053e82823361110f565b5050565b73ffffffffffffffffffffffffffffffffffffffff8216610597576040517f64a0ae92000000000000000000000000000000000000000000000000000000008152600060048201526024015b60405180910390fd5b60006105a483833361111c565b90508373ffffffffffffffffffffffffffffffffffffffff168173ffffffffffffffffffffffffffffffffffffffff1614610632576040517f64283d7b00000000000000000000000000000000000000000000000000000000815273ffffffffffffffffffffffffffffffffffffffff8086166004830152602482018490528216604482015260640161058e565b50505050565b3361065860075473ffffffffffffffffffffffffffffffffffffffff1690565b73ffffffffffffffffffffffffffffffffffffffff16148061068957503360009081526009602052604090205460ff165b6106ef576040517f08c379a000000000000000000000000000000000000000000000000000000000815260206004820152601f60248201527f43616c6c6572206973206e6f74206f776e6572206f72206f70657261746f7200604482015260640161058e565b6106f98383611299565b610703828261134a565b505050565b61070383838360405180602001604052806000815250610dd5565b3361074360075473ffffffffffffffffffffffffffffffffffffffff1690565b73ffffffffffffffffffffffffffffffffffffffff16148061077457503360009081526009602052604090205460ff165b6107da576040517f08c379a000000000000000000000000000000000000000000000000000000000815260206004820152601f60248201527f43616c6c6572206973206e6f74206f776e6572206f72206f70657261746f7200604482015260640161058e565b600a61053e82826123ac565b6000610465826110b0565b600073ffffffffffffffffffffffffffffffffffffffff8216610843576040517f89c62b640000000000000000000000000000000000000000000000000000000081526000600482015260240161058e565b5073ffffffffffffffffffffffffffffffffffffffff1660009081526003602052604090205490565b61087461139a565b61087e60006113ed565b565b3360009081526009602052604090205460ff166108f9576040517f08c379a000000000000000000000000000000000000000000000000000000000815260206004820152601960248201527f43616c6c6572206973206e6f7420616e206f70657261746f7200000000000000604482015260640161058e565b600081815260086020908152604080832080546001810182559084529282902090920180547fffffffffffffffffffffffff000000000000000000000000000000000000000016339081179091558251848152918201527f4a3d1907355e486fa9dec825eb6c9381047283bfe4872c21db8adbffab9168a6910160405180910390a150565b60606001805461047a9061230b565b336109ad60075473ffffffffffffffffffffffffffffffffffffffff1690565b73ffffffffffffffffffffffffffffffffffffffff1614806109de57503360009081526009602052604090205460ff165b610a44576040517f08c379a000000000000000000000000000000000000000000000000000000000815260206004820152601f60248201527f43616c6c6572206973206e6f74206f776e6572206f72206f70657261746f7200604482015260640161058e565b8151835114610aaf576040517f08c379a000000000000000000000000000000000000000000000000000000000815260206004820152601860248201527f4d69736d61746368656420696e707574206c656e677468730000000000000000604482015260640161058e565b8051835114610b1a576040517f08c379a000000000000000000000000000000000000000000000000000000000815260206004820152601860248201527f4d69736d61746368656420696e707574206c656e677468730000000000000000604482015260640161058e565b60005b835181101561063257610b62848281518110610b3b57610b3b6124c6565b6020026020010151848381518110610b5557610b556124c6565b6020026020010151611299565b610b9e838281518110610b7757610b776124c6565b6020026020010151838381518110610b9157610b916124c6565b602002602001015161134a565b80610ba8816124f5565b915050610b1d565b610bb861139a565b73ffffffffffffffffffffffffffffffffffffffff811660009081526009602052604090205460ff1615610c48576040517f08c379a000000000000000000000000000000000000000000000000000000000815260206004820152601e60248201527f4164647265737320697320616c726561647920616e206f70657261746f720000604482015260640161058e565b73ffffffffffffffffffffffffffffffffffffffff811660008181526009602052604080822080547fffffffffffffffffffffffffffffffffffffffffffffffffffffffffffffff00166001179055517fac6fa858e9350a46cec16539926e0fde25b7629f84b5a72bffaae4df888ae86d9190a250565b61053e338383611464565b610cd261139a565b73ffffffffffffffffffffffffffffffffffffffff811660009081526009602052604090205460ff16610d61576040517f08c379a000000000000000000000000000000000000000000000000000000000815260206004820152601a60248201527f41646472657373206973206e6f7420616e206f70657261746f72000000000000604482015260640161058e565b73ffffffffffffffffffffffffffffffffffffffff811660008181526009602052604080822080547fffffffffffffffffffffffffffffffffffffffffffffffffffffffffffffff00169055517f80c0b871b97b595b16a7741c1b06fed0c6f6f558639f18ccbce50724325dc40d9190a250565b610de0848484610542565b61063284848484611561565b6060610df7826110b0565b5060008281526006602052604081208054610e119061230b565b80601f0160208091040260200160405190810160405280929190818152602001828054610e3d9061230b565b8015610e8a5780601f10610e5f57610100808354040283529160200191610e8a565b820191906000526020600020905b815481529060010190602001808311610e6d57829003601f168201915b505050505090506000610e9b611758565b90508051600003610ead575092915050565b815115610edf578082604051602001610ec7929190612554565b60405160208183030381529060405292505050919050565b610ee884611767565b949350505050565b610ef861139a565b73ffffffffffffffffffffffffffffffffffffffff8116610f48576040517f1e4fbdf70000000000000000000000000000000000000000000000000000000081526000600482015260240161058e565b610f51816113ed565b50565b600081815260086020908152604091829020805483518184028101840190945280845260609392830182828015610fc157602002820191906000526020600020905b815473ffffffffffffffffffffffffffffffffffffffff168152600190910190602001808311610f96575b50505050509050919050565b60007fffffffff0000000000000000000000000000000000000000000000000000000082167f80ac58cd00000000000000000000000000000000000000000000000000000000148061106057507fffffffff0000000000000000000000000000000000000000000000000000000082167f5b5e139f00000000000000000000000000000000000000000000000000000000145b8061046557507f01ffc9a7000000000000000000000000000000000000000000000000000000007fffffffff00000000000000000000000000000000000000000000000000000000831614610465565b60008181526002602052604081205473ffffffffffffffffffffffffffffffffffffffff1680610465576040517f7e2732890000000000000000000000000000000000000000000000000000000081526004810184905260240161058e565b61070383838360016117cf565b60008281526002602052604081205473ffffffffffffffffffffffffffffffffffffffff908116908316156111565761115681848661199a565b73ffffffffffffffffffffffffffffffffffffffff8116156111cc576111806000856000806117cf565b73ffffffffffffffffffffffffffffffffffffffff8116600090815260036020526040902080547fffffffffffffffffffffffffffffffffffffffffffffffffffffffffffffffff0190555b73ffffffffffffffffffffffffffffffffffffffff8516156112155773ffffffffffffffffffffffffffffffffffffffff85166000908152600360205260409020805460010190555b60008481526002602052604080822080547fffffffffffffffffffffffff00000000000000000000000000000000000000001673ffffffffffffffffffffffffffffffffffffffff89811691821790925591518793918516917fddf252ad1be2c89b69c2b068fc378daa952ba7f163c4a11628f55a4df523b3ef91a4949350505050565b73ffffffffffffffffffffffffffffffffffffffff82166112e9576040517f64a0ae920000000000000000000000000000000000000000000000000000000081526000600482015260240161058e565b60006112f78383600061111c565b905073ffffffffffffffffffffffffffffffffffffffff811615610703576040517f73c6ac6e0000000000000000000000000000000000000000000000000000000081526000600482015260240161058e565b600082815260066020526040902061136282826123ac565b506040518281527ff8e1a15aba9398e019f0b49df1a4fde98ee17ae345cb5f6b5e2c27f5033e8ce79060200160405180910390a15050565b60075473ffffffffffffffffffffffffffffffffffffffff16331461087e576040517f118cdaa700000000000000000000000000000000000000000000000000000000815233600482015260240161058e565b6007805473ffffffffffffffffffffffffffffffffffffffff8381167fffffffffffffffffffffffff0000000000000000000000000000000000000000831681179093556040519116919082907f8be0079c531659141344cd1fd0a4f28419497f9722a3daafe3b4186f6b6457e090600090a35050565b73ffffffffffffffffffffffffffffffffffffffff82166114c9576040517f5b08ba1800000000000000000000000000000000000000000000000000000000815273ffffffffffffffffffffffffffffffffffffffff8316600482015260240161058e565b73ffffffffffffffffffffffffffffffffffffffff83811660008181526005602090815260408083209487168084529482529182902080547fffffffffffffffffffffffffffffffffffffffffffffffffffffffffffffff001686151590811790915591519182527f17307eab39ab6107e8899845ad3d59bd9653f200f220920489ca2b5937696c31910160405180910390a3505050565b73ffffffffffffffffffffffffffffffffffffffff83163b15610632576040517f150b7a0200000000000000000000000000000000000000000000000000000000815273ffffffffffffffffffffffffffffffffffffffff84169063150b7a02906115d6903390889087908790600401612583565b6020604051808303816000875af192505050801561162f575060408051601f3d9081017fffffffffffffffffffffffffffffffffffffffffffffffffffffffffffffffe016820190925261162c918101906125cc565b60015b6116be573d80801561165d576040519150601f19603f3d011682016040523d82523d6000602084013e611662565b606091505b5080516000036116b6576040517f64a0ae9200000000000000000000000000000000000000000000000000000000815273ffffffffffffffffffffffffffffffffffffffff8516600482015260240161058e565b805181602001fd5b7fffffffff0000000000000000000000000000000000000000000000000000000081167f150b7a020000000000000000000000000000000000000000000000000000000014611751576040517f64a0ae9200000000000000000000000000000000000000000000000000000000815273ffffffffffffffffffffffffffffffffffffffff8516600482015260240161058e565b5050505050565b6060600a805461047a9061230b565b6060611772826110b0565b50600061177d611758565b9050600081511161179d57604051806020016040528060008152506117c8565b806117a784611a4a565b6040516020016117b8929190612554565b6040516020818303038152906040525b9392505050565b80806117f0575073ffffffffffffffffffffffffffffffffffffffff821615155b15611945576000611800846110b0565b905073ffffffffffffffffffffffffffffffffffffffff83161580159061185357508273ffffffffffffffffffffffffffffffffffffffff168173ffffffffffffffffffffffffffffffffffffffff1614155b8015611892575073ffffffffffffffffffffffffffffffffffffffff80821660009081526005602090815260408083209387168352929052205460ff16155b156118e1576040517fa9fbf51f00000000000000000000000000000000000000000000000000000000815273ffffffffffffffffffffffffffffffffffffffff8416600482015260240161058e565b811561194357838573ffffffffffffffffffffffffffffffffffffffff168273ffffffffffffffffffffffffffffffffffffffff167f8c5be1e5ebec7d5bd14f71427d1e84f3dd0314c0f7b2291e5b200ac8c7c3b92560405160405180910390a45b505b5050600090815260046020526040902080547fffffffffffffffffffffffff00000000000000000000000000000000000000001673ffffffffffffffffffffffffffffffffffffffff92909216919091179055565b6119a5838383611b08565b6107035773ffffffffffffffffffffffffffffffffffffffff83166119f9576040517f7e2732890000000000000000000000000000000000000000000000000000000081526004810182905260240161058e565b6040517f177e802f00000000000000000000000000000000000000000000000000000000815273ffffffffffffffffffffffffffffffffffffffff831660048201526024810182905260440161058e565b60606000611a5783611bcc565b600101905060008167ffffffffffffffff811115611a7757611a77611e22565b6040519080825280601f01601f191660200182016040528015611aa1576020820181803683370190505b5090508181016020015b7fffffffffffffffffffffffffffffffffffffffffffffffffffffffffffffffff017f3031323334353637383961626364656600000000000000000000000000000000600a86061a8153600a8504945084611aab57509392505050565b600073ffffffffffffffffffffffffffffffffffffffff831615801590610ee857508273ffffffffffffffffffffffffffffffffffffffff168473ffffffffffffffffffffffffffffffffffffffff161480611b96575073ffffffffffffffffffffffffffffffffffffffff80851660009081526005602090815260408083209387168352929052205460ff165b80610ee857505060009081526004602052604090205473ffffffffffffffffffffffffffffffffffffffff908116911614919050565b6000807a184f03e93ff9f4daa797ed6e38ed64bf6a1f0100000000000000008310611c15577a184f03e93ff9f4daa797ed6e38ed64bf6a1f010000000000000000830492506040015b6d04ee2d6d415b85acef81000000008310611c41576d04ee2d6d415b85acef8100000000830492506020015b662386f26fc100008310611c5f57662386f26fc10000830492506010015b6305f5e1008310611c77576305f5e100830492506008015b6127108310611c8b57612710830492506004015b60648310611c9d576064830492506002015b600a83106104655760010192915050565b7fffffffff0000000000000000000000000000000000000000000000000000000081168114610f5157600080fd5b600060208284031215611cee57600080fd5b81356117c881611cae565b60005b83811015611d14578181015183820152602001611cfc565b50506000910152565b60008151808452611d35816020860160208601611cf9565b601f017fffffffffffffffffffffffffffffffffffffffffffffffffffffffffffffffe0169290920160200192915050565b6020815260006117c86020830184611d1d565b600060208284031215611d8c57600080fd5b5035919050565b803573ffffffffffffffffffffffffffffffffffffffff81168114611db757600080fd5b919050565b60008060408385031215611dcf57600080fd5b611dd883611d93565b946020939093013593505050565b600080600060608486031215611dfb57600080fd5b611e0484611d93565b9250611e1260208501611d93565b9150604084013590509250925092565b7f4e487b7100000000000000000000000000000000000000000000000000000000600052604160045260246000fd5b604051601f82017fffffffffffffffffffffffffffffffffffffffffffffffffffffffffffffffe016810167ffffffffffffffff81118282101715611e9857611e98611e22565b604052919050565b600067ffffffffffffffff831115611eba57611eba611e22565b611eeb60207fffffffffffffffffffffffffffffffffffffffffffffffffffffffffffffffe0601f86011601611e51565b9050828152838383011115611eff57600080fd5b828260208301376000602084830101529392505050565b600082601f830112611f2757600080fd5b6117c883833560208501611ea0565b600080600060608486031215611f4b57600080fd5b611f5484611d93565b925060208401359150604084013567ffffffffffffffff811115611f7757600080fd5b611f8386828701611f16565b9150509250925092565b600060208284031215611f9f57600080fd5b813567ffffffffffffffff811115611fb657600080fd5b610ee884828501611f16565b600060208284031215611fd457600080fd5b6117c882611d93565b600067ffffffffffffffff821115611ff757611ff7611e22565b5060051b60200190565b600082601f83011261201257600080fd5b8135602061202761202283611fdd565b611e51565b82815260059290921b8401810191818101908684111561204657600080fd5b8286015b84811015612061578035835291830191830161204a565b509695505050505050565b600082601f83011261207d57600080fd5b8135602061208d61202283611fdd565b82815260059290921b840181019181810190868411156120ac57600080fd5b8286015b8481101561206157803567ffffffffffffffff8111156120d05760008081fd5b6120de8986838b0101611f16565b8452509183019183016120b0565b60008060006060848603121561210157600080fd5b833567ffffffffffffffff8082111561211957600080fd5b818601915086601f83011261212d57600080fd5b8135602061213d61202283611fdd565b82815260059290921b8401810191818101908a84111561215c57600080fd5b948201945b838610156121815761217286611d93565b82529482019490820190612161565b9750508701359250508082111561219757600080fd5b6121a387838801612001565b935060408601359150808211156121b957600080fd5b50611f838682870161206c565b600080604083850312156121d957600080fd5b6121e283611d93565b9150602083013580151581146121f757600080fd5b809150509250929050565b6000806000806080858703121561221857600080fd5b61222185611d93565b935061222f60208601611d93565b925060408501359150606085013567ffffffffffffffff81111561225257600080fd5b8501601f8101871361226357600080fd5b61227287823560208401611ea0565b91505092959194509250565b6000806040838503121561229157600080fd5b61229a83611d93565b91506122a860208401611d93565b90509250929050565b6020808252825182820181905260009190848201906040850190845b818110156122ff57835173ffffffffffffffffffffffffffffffffffffffff16835292840192918401916001016122cd565b50909695505050505050565b600181811c9082168061231f57607f821691505b602082108103612358577f4e487b7100000000000000000000000000000000000000000000000000000000600052602260045260246000fd5b50919050565b601f82111561070357600081815260208120601f850160051c810160208610156123855750805b601f850160051c820191505b818110156123a457828155600101612391565b505050505050565b815167ffffffffffffffff8111156123c6576123c6611e22565b6123da816123d4845461230b565b8461235e565b602080601f83116001811461242d57600084156123f75750858301515b7fffffffffffffffffffffffffffffffffffffffffffffffffffffffffffffffff600386901b1c1916600185901b1785556123a4565b6000858152602081207fffffffffffffffffffffffffffffffffffffffffffffffffffffffffffffffe08616915b8281101561247a5788860151825594840194600190910190840161245b565b50858210156124b657878501517fffffffffffffffffffffffffffffffffffffffffffffffffffffffffffffffff600388901b60f8161c191681555b5050505050600190811b01905550565b7f4e487b7100000000000000000000000000000000000000000000000000000000600052603260045260246000fd5b60007fffffffffffffffffffffffffffffffffffffffffffffffffffffffffffffffff820361254d577f4e487b7100000000000000000000000000000000000000000000000000000000600052601160045260246000fd5b5060010190565b60008351612566818460208801611cf9565b83519083019061257a818360208801611cf9565b01949350505050565b600073ffffffffffffffffffffffffffffffffffffffff8087168352808616602084015250836040830152608060608301526125c26080830184611d1d565b9695505050505050565b6000602082840312156125de57600080fd5b81516117c881611cae56fea26469706673582212202d88e88a0bb36fdf679b2e3af9ad01f64d67b746c4dad3ccca0ec68699d9677864736f6c63430008140033",
  "linkReferences": {},
  "deployedLinkReferences": {}
}