{
  "_format": "hh-sol-artifact-1",
  "contractName": "CerifiableNFT",
  "sourceName": "contracts/CerifiableNFT.sol",
  "abi": [
    {
      "inputs": [
        {
          "internalType": "string",
          "name": "name",
          "type": "string"
        },
        {
          "internalType": "string",
          "name": "symbol",
          "type": "string"
        },
        {
          "internalType": "string",
          "name": "baseURI",
          "type": "string"
        }
      ],
      "stateMutability": "nonpayable",
      "type": "constructor"
    },
    {
      "inputs": [
        {
          "internalType": "address",
          "name": "sender",
          "type": "address"
        },
        {
          "internalType": "uint256",
          "name": "tokenId",
          "type": "uint256"
        },
        {
          "internalType": "address",
          "name": "owner",
          "type": "address"
        }
      ],
      "name": "ERC721IncorrectOwner",
      "type": "error"
    },
    {
      "inputs": [
        {
          "internalType": "address",
          "name": "operator",
          "type": "address"
        },
        {
          "internalType": "uint256",
          "name": "tokenId",
          "type": "uint256"
        }
      ],
      "name": "ERC721InsufficientApproval",
      "type": "error"
    },
    {
      "inputs": [
        {
          "internalType": "address",
          "name": "approver",
          "type": "address"
        }
      ],
      "name": "ERC721InvalidApprover",
      "type": "error"
    },
    {
      "inputs": [
        {
          "internalType": "address",
          "name": "operator",
          "type": "address"
        }
      ],
      "name": "ERC721InvalidOperator",
      "type": "error"
    },
    {
      "inputs": [
        {
          "internalType": "address",
          "name": "owner",
          "type": "address"
        }
      ],
      "name": "ERC721InvalidOwner",
      "type": "error"
    },
    {
      "inputs": [
        {
          "internalType": "address",
          "name": "receiver",
          "type": "address"
        }
      ],
      "name": "ERC721InvalidReceiver",
      "type": "error"
    },
    {
      "inputs": [
        {
          "internalType": "address",
          "name": "sender",
          "type": "address"
        }
      ],
      "name": "ERC721InvalidSender",
      "type": "error"
    },
    {
      "inputs": [
        {
          "internalType": "uint256",
          "name": "tokenId",
          "type": "uint256"
        }
      ],
      "name": "ERC721NonexistentToken",
      "type": "error"
    },
    {
      "inputs": [
        {
          "internalType": "address",
          "name": "owner",
          "type": "address"
        }
      ],
      "name": "OwnableInvalidOwner",
      "type": "error"
    },
    {
      "inputs": [
        {
          "internalType": "address",
          "name": "account",
          "type": "address"
        }
      ],
      "name": "OwnableUnauthorizedAccount",
      "type": "error"
    },
    {
      "anonymous": false,
      "inputs": [
        {
          "indexed": true,
          "internalType": "address",
          "name": "owner",
          "type": "address"
        },
        {
          "indexed": true,
          "internalType": "address",
          "name": "approved",
          "type": "address"
        },
        {
          "indexed": true,
          "internalType": "uint256",
          "name": "tokenId",
          "type": "uint256"
        }
      ],
      "name": "Approval",
      "type": "event"
    },
    {
      "anonymous": false,
      "inputs": [
        {
          "indexed": true,
          "internalType": "address",
          "name": "owner",
          "type": "address"
        },
        {
          "indexed": true,
          "internalType": "address",
          "name": "operator",
          "type": "address"
        },
        {
          "indexed": false,
          "internalType": "bool",
          "name": "approved",
          "type": "bool"
        }
      ],
      "name": "ApprovalForAll",
      "type": "event"
    },
    {
      "anonymous": false,
      "inputs": [
        {
          "indexed": false,
          "internalType": "uint256",
          "name": "_fromTokenId",
          "type": "uint256"
        },
        {
          "indexed": false,
          "internalType": "uint256",
          "name": "_toTokenId",
          "type": "uint256"
        }
      ],
      "name": "BatchMetadataUpdate",
      "type": "event"
    },
    {
      "anonymous": false,
      "inputs": [
        {
          "indexed": false,
          "internalType": "uint256",
          "name": "_tokenId",
          "type": "uint256"
        }
      ],
      "name": "MetadataUpdate",
      "type": "event"
    },
    {
      "anonymous": false,
      "inputs": [
        {
          "indexed": true,
          "internalType": "address",
          "name": "operator",
          "type": "address"
        }
      ],
      "name": "OperatorAdded",
      "type": "event"
    },
    {
      "anonymous": false,
      "inputs": [
        {
          "indexed": true,
          "internalType": "address",
          "name": "operator",
          "type": "address"
        }
      ],
      "name": "OperatorRemoved",
      "type": "event"
    },
    {
      "anonymous": false,
      "inputs": [
        {
          "indexed": true,
          "internalType": "address",
          "name": "previousOwner",
          "type": "address"
        },
        {
          "indexed": true,
          "internalType": "address",
          "name": "newOwner",
          "type": "address"
        }
      ],
      "name": "OwnershipTransferred",
      "type": "event"
    },
    {
      "anonymous": false,
      "inputs": [
        {
          "indexed": false,
          "internalType": "uint256",
          "name": "tokenId",
          "type": "uint256"
        },
        {
          "indexed": false,
          "internalType": "address",
          "name": "verifier",
          "type": "address"
        }
      ],
      "name": "TokenVerified",
      "type": "event"
    },
    {
      "anonymous": false,
      "inputs": [
        {
          "indexed": true,
          "internalType": "address",
          "name": "from",
          "type": "address"
        },
        {
          "indexed": true,
          "internalType": "address",
          "name": "to",
          "type": "address"
        },
        {
          "indexed": true,
          "internalType": "uint256",
          "name": "tokenId",
          "type": "uint256"
        }
      ],
      "name": "Transfer",
      "type": "event"
    },
    {
      "inputs": [
        {
          "internalType": "address",
          "name": "operator",
          "type": "address"
        }
      ],
      "name": "addOperator",
      "outputs": [],
      "stateMutability": "nonpayable",
      "type": "function"
    },
    {
      "inputs": [
        {
          "internalType": "address",
          "name": "to",
          "type": "address"
        },
        {
          "internalType": "uint256",
          "name": "tokenId",
          "type": "uint256"
        }
      ],
      "name": "approve",
      "outputs": [],
      "stateMutability": "nonpayable",
      "type": "function"
    },
    {
      "inputs": [
        {
          "internalType": "address",
          "name": "owner",
          "type": "address"
        }
      ],
      "name": "balanceOf",
      "outputs": [
        {
          "internalType": "uint256",
          "name": "",
          "type": "uint256"
        }
      ],
      "stateMutability": "view",
      "type": "function"
    },
    {
      "inputs": [
        {
          "internalType": "address[]",
          "name": "to",
          "type": "address[]"
        },
        {
          "internalType": "uint256[]",
          "name": "tokenIds",
          "type": "uint256[]"
        },
        {
          "internalType": "string[]",
          "name": "tokenURIs",
          "type": "string[]"
        }
      ],
      "name": "batchMintWithMetadata",
      "outputs": [],
      "stateMutability": "nonpayable",
      "type": "function"
    },
    {
      "inputs": [
        {
          "internalType": "uint256",
          "name": "tokenId",
          "type": "uint256"
        }
      ],
      "name": "getApproved",
      "outputs": [
        {
          "internalType": "address",
          "name": "",
          "type": "address"
        }
      ],
      "stateMutability": "view",
      "type": "function"
    },
    {
      "inputs": [
        {
          "internalType": "uint256",
          "name": "tokenId",
          "type": "uint256"
        }
      ],
      "name": "getVerifiers",
      "outputs": [
        {
          "internalType": "address[]",
          "name": "",
          "type": "address[]"
        }
      ],
      "stateMutability": "view",
      "type": "function"
    },
    {
      "inputs": [
        {
          "internalType": "address",
          "name": "owner",
          "type": "address"
        },
        {
          "internalType": "address",
          "name": "operator",
          "type": "address"
        }
      ],
      "name": "isApprovedForAll",
      "outputs": [
        {
          "internalType": "bool",
          "name": "",
          "type": "bool"
        }
      ],
      "stateMutability": "view",
      "type": "function"
    },
    {
      "inputs": [
        {
          "internalType": "address",
          "name": "operator",
          "type": "address"
        }
      ],
      "name": "isOperator",
      "outputs": [
        {
          "internalType": "bool",
          "name": "",
          "type": "bool"
        }
      ],
      "stateMutability": "view",
      "type": "function"
    },
    {
      "inputs": [
        {
          "internalType": "address",
          "name": "to",
          "type": "address"
        },
        {
          "internalType": "uint256",
          "name": "tokenId",
          "type": "uint256"
        },
        {
          "internalType": "string",
          "name": "tokenURI",
          "type": "string"
        }
      ],
      "name": "mintWithMetadata",
      "outputs": [],
      "stateMutability": "nonpayable",
      "type": "function"
    },
    {
      "inputs": [],
      "name": "name",
      "outputs": [
        {
          "internalType": "string",
          "name": "",
          "type": "string"
        }
      ],
      "stateMutability": "view",
      "type": "function"
    },
    {
      "inputs": [],
      "name": "owner",
      "outputs": [
        {
          "internalType": "address",
          "name": "",
          "type": "address"
        }
      ],
      "stateMutability": "view",
      "type": "function"
    },
    {
      "inputs": [
        {
          "internalType": "uint256",
          "name": "tokenId",
          "type": "uint256"
        }
      ],
      "name": "ownerOf",
      "outputs": [
        {
          "internalType": "address",
          "name": "",
          "type": "address"
        }
      ],
      "stateMutability": "view",
      "type": "function"
    },
    {
      "inputs": [
        {
          "internalType": "address",
          "name": "operator",
          "type": "address"
        }
      ],
      "name": "removeOperator",
      "outputs": [],
      "stateMutability": "nonpayable",
      "type": "function"
    },
    {
      "inputs": [],
      "name": "renounceOwnership",
      "outputs": [],
      "stateMutability": "nonpayable",
      "type": "function"
    },
    {
      "inputs": [
        {
          "internalType": "address",
          "name": "from",
          "type": "address"
        },
        {
          "internalType": "address",
          "name": "to",
          "type": "address"
        },
        {
          "internalType": "uint256",
          "name": "tokenId",
          "type": "uint256"
        }
      ],
      "name": "safeTransferFrom",
      "outputs": [],
      "stateMutability": "nonpayable",
      "type": "function"
    },
    {
      "inputs": [
        {
          "internalType": "address",
          "name": "from",
          "type": "address"
        },
        {
          "internalType": "address",
          "name": "to",
          "type": "address"
        },
        {
          "internalType": "uint256",
          "name": "tokenId",
          "type": "uint256"
        },
        {
          "internalType": "bytes",
          "name": "data",
          "type": "bytes"
        }
      ],
      "name": "safeTransferFrom",
      "outputs": [],
      "stateMutability": "nonpayable",
      "type": "function"
    },
    {
      "inputs": [
        {
          "internalType": "address",
          "name": "operator",
          "type": "address"
        },
        {
          "internalType": "bool",
          "name": "approved",
          "type": "bool"
        }
      ],
      "name": "setApprovalForAll",
      "outputs": [],
      "stateMutability": "nonpayable",
      "type": "function"
    },
    {
      "inputs": [
        {
          "internalType": "string",
          "name": "baseURI",
          "type": "string"
        }
      ],
      "name": "setBaseURI",
      "outputs": [],
      "stateMutability": "nonpayable",
      "type": "function"
    },
    {
      "inputs": [
        {
          "internalType": "bytes4",
          "name": "interfaceId",
          "type": "bytes4"
        }
      ],
      "name": "supportsInterface",
      "outputs": [
        {
          "internalType": "bool",
          "name": "",
          "type": "bool"
        }
      ],
      "stateMutability": "view",
      "type": "function"
    },
    {
      "inputs": [],
      "name": "symbol",
      "outputs": [
        {
          "internalType": "string",
          "name": "",
          "type": "string"
        }
      ],
      "stateMutability": "view",
      "type": "function"
    },
    {
      "inputs": [
        {
          "internalType": "uint256",
          "name": "tokenId",
          "type": "uint256"
        }
      ],
      "name": "tokenURI",
      "outputs": [
        {
          "internalType": "string",
          "name": "",
          "type": "string"
        }
      ],
      "stateMutability": "view",
      "type": "function"
    },
    {
      "inputs": [],
      "name": "totalSupply",
      "outputs": [
        {
          "internalType": "uint256",
          "name": "",
          "type": "uint256"
        }
      ],
      "stateMutability": "view",
      "type": "function"
    },
    {
      "inputs": [
        {
          "internalType": "address",
          "name": "from",
          "type": "address"
        },
        {
          "internalType": "address",
          "name": "to",
          "type": "address"
        },
        {
          "internalType": "uint256",
          "name": "tokenId",
          "type": "uint256"
        }
      ],
      "name": "transferFrom",
      "outputs": [],
      "stateMutability": "nonpayable",
      "type": "function"
    },
    {
      "inputs": [
        {
          "internalType": "address",
          "name": "newOwner",
          "type": "address"
        }
      ],
      "name": "transferOwnership",
      "outputs": [],
      "stateMutability": "nonpayable",
      "type": "function"
    },
    {
      "inputs": [
        {
          "internalType": "uint256",
          "name": "tokenId",
          "type": "uint256"
        }
      ],
      "name": "verify",
      "outputs": [],
      "stateMutability": "nonpayable",
      "type": "function"
    }
  ],
  "bytecode": "0x60806040523480156200001157600080fd5b5060405162002a1b38038062002a1b8339810160408190526200003491620001c1565b3383836000620000458382620002e1565b506001620000548282620002e1565b5050506001600160a01b0381166200008657604051631e4fbdf760e01b81526000600482015260240160405180910390fd5b6200009181620000aa565b50600b620000a08282620002e1565b50505050620003ad565b600780546001600160a01b038381166001600160a01b0319831681179093556040519116919082907f8be0079c531659141344cd1fd0a4f28419497f9722a3daafe3b4186f6b6457e090600090a35050565b634e487b7160e01b600052604160045260246000fd5b600082601f8301126200012457600080fd5b81516001600160401b0380821115620001415762000141620000fc565b604051601f8301601f19908116603f011681019082821181831017156200016c576200016c620000fc565b816040528381526020925086838588010111156200018957600080fd5b600091505b83821015620001ad57858201830151818301840152908201906200018e565b600093810190920192909252949350505050565b600080600060608486031215620001d757600080fd5b83516001600160401b0380821115620001ef57600080fd5b620001fd8783880162000112565b945060208601519150808211156200021457600080fd5b620002228783880162000112565b935060408601519150808211156200023957600080fd5b50620002488682870162000112565b9150509250925092565b600181811c908216806200026757607f821691505b6020821081036200028857634e487b7160e01b600052602260045260246000fd5b50919050565b601f821115620002dc57600081815260208120601f850160051c81016020861015620002b75750805b601f850160051c820191505b81811015620002d857828155600101620002c3565b5050505b505050565b81516001600160401b03811115620002fd57620002fd620000fc565b62000315816200030e845462000252565b846200028e565b602080601f8311600181146200034d5760008415620003345750858301515b600019600386901b1c1916600185901b178555620002d8565b600085815260208120601f198616915b828110156200037e578886015182559484019460019091019084016200035d565b50858210156200039d5787850151600019600388901b60f8161c191681555b5050505050600190811b01905550565b61265e80620003bd6000396000f3fe608060405234801561001057600080fd5b50600436106101a35760003560e01c8063715018a6116100ee578063a22cb46511610097578063c87b56dd11610071578063c87b56dd1461038f578063e985e9c5146103a2578063f2fde38b146103eb578063f5aa29c8146103fe57600080fd5b8063a22cb46514610356578063ac8a584a14610369578063b88d4fde1461037c57600080fd5b806395d89b41116100c857806395d89b411461032857806397a0906c146103305780639870d7fe1461034357600080fd5b8063715018a6146102ef5780638753367f146102f75780638da5cb5b1461030a57600080fd5b80632d63f728116101505780636352211e1161012a5780636352211e146102905780636d70f7ae146102a357806370a08231146102dc57600080fd5b80632d63f7281461025757806342842e0e1461026a57806355f804b31461027d57600080fd5b8063095ea7b311610181578063095ea7b31461021d57806318160ddd1461023257806323b872dd1461024457600080fd5b806301ffc9a7146101a857806306fdde03146101d0578063081812fc146101e5575b600080fd5b6101bb6101b6366004611d1b565b61041e565b60405190151581526020015b60405180910390f35b6101d861047a565b6040516101c79190611da6565b6101f86101f3366004611db9565b61050c565b60405173ffffffffffffffffffffffffffffffffffffffff90911681526020016101c7565b61023061022b366004611dfb565b610542565b005b600a545b6040519081526020016101c7565b610230610252366004611e25565b610551565b610230610265366004611f75565b610647565b610230610278366004611e25565b61072c565b61023061028b366004611fcc565b61074c565b6101f861029e366004611db9565b61080f565b6101bb6102b1366004612001565b73ffffffffffffffffffffffffffffffffffffffff1660009081526009602052604090205460ff1690565b6102366102ea366004612001565b61081a565b610230610895565b610230610305366004611db9565b6108a9565b60075473ffffffffffffffffffffffffffffffffffffffff166101f8565b6101d86109a7565b61023061033e36600461212b565b6109b6565b610230610351366004612001565b610bef565b610230610364366004612205565b610cfe565b610230610377366004612001565b610d09565b61023061038a366004612241565b610e14565b6101d861039d366004611db9565b610e2b565b6101bb6103b03660046122bd565b73ffffffffffffffffffffffffffffffffffffffff918216600090815260056020908152604080832093909416825291909152205460ff1690565b6102306103f9366004612001565b610f2f565b61041161040c366004611db9565b610f93565b6040516101c791906122f0565b60007fffffffff0000000000000000000000000000000000000000000000000000000082167f4906490600000000000000000000000000000000000000000000000000000000148061047457506104748261100c565b92915050565b6060600080546104899061234a565b80601f01602080910402602001604051908101604052809291908181526020018280546104b59061234a565b80156105025780601f106104d757610100808354040283529160200191610502565b820191906000526020600020905b8154815290600101906020018083116104e557829003601f168201915b5050505050905090565b6000610517826110ef565b5060008281526004602052604090205473ffffffffffffffffffffffffffffffffffffffff16610474565b61054d82823361114e565b5050565b73ffffffffffffffffffffffffffffffffffffffff82166105a6576040517f64a0ae92000000000000000000000000000000000000000000000000000000008152600060048201526024015b60405180910390fd5b60006105b383833361115b565b90508373ffffffffffffffffffffffffffffffffffffffff168173ffffffffffffffffffffffffffffffffffffffff1614610641576040517f64283d7b00000000000000000000000000000000000000000000000000000000815273ffffffffffffffffffffffffffffffffffffffff8086166004830152602482018490528216604482015260640161059d565b50505050565b3361066760075473ffffffffffffffffffffffffffffffffffffffff1690565b73ffffffffffffffffffffffffffffffffffffffff16148061069857503360009081526009602052604090205460ff165b6106fe576040517f08c379a000000000000000000000000000000000000000000000000000000000815260206004820152601f60248201527f43616c6c6572206973206e6f74206f776e6572206f72206f70657261746f7200604482015260640161059d565b61070883836112d8565b6107128282611389565b600a80549060006107228361239d565b9190505550505050565b61074783838360405180602001604052806000815250610e14565b505050565b3361076c60075473ffffffffffffffffffffffffffffffffffffffff1690565b73ffffffffffffffffffffffffffffffffffffffff16148061079d57503360009081526009602052604090205460ff165b610803576040517f08c379a000000000000000000000000000000000000000000000000000000000815260206004820152601f60248201527f43616c6c6572206973206e6f74206f776e6572206f72206f70657261746f7200604482015260640161059d565b600b61054d828261244a565b6000610474826110ef565b600073ffffffffffffffffffffffffffffffffffffffff821661086c576040517f89c62b640000000000000000000000000000000000000000000000000000000081526000600482015260240161059d565b5073ffffffffffffffffffffffffffffffffffffffff1660009081526003602052604090205490565b61089d6113d9565b6108a7600061142c565b565b3360009081526009602052604090205460ff16610922576040517f08c379a000000000000000000000000000000000000000000000000000000000815260206004820152601960248201527f43616c6c6572206973206e6f7420616e206f70657261746f7200000000000000604482015260640161059d565b600081815260086020908152604080832080546001810182559084529282902090920180547fffffffffffffffffffffffff000000000000000000000000000000000000000016339081179091558251848152918201527f4a3d1907355e486fa9dec825eb6c9381047283bfe4872c21db8adbffab9168a6910160405180910390a150565b6060600180546104899061234a565b336109d660075473ffffffffffffffffffffffffffffffffffffffff1690565b73ffffffffffffffffffffffffffffffffffffffff161480610a0757503360009081526009602052604090205460ff165b610a6d576040517f08c379a000000000000000000000000000000000000000000000000000000000815260206004820152601f60248201527f43616c6c6572206973206e6f74206f776e6572206f72206f70657261746f7200604482015260640161059d565b8151835114610ad8576040517f08c379a000000000000000000000000000000000000000000000000000000000815260206004820152601860248201527f4d69736d61746368656420696e707574206c656e677468730000000000000000604482015260640161059d565b8051835114610b43576040517f08c379a000000000000000000000000000000000000000000000000000000000815260206004820152601860248201527f4d69736d61746368656420696e707574206c656e677468730000000000000000604482015260640161059d565b60005b835181101561064157610b8b848281518110610b6457610b64612564565b6020026020010151848381518110610b7e57610b7e612564565b60200260200101516112d8565b610bc7838281518110610ba057610ba0612564565b6020026020010151838381518110610bba57610bba612564565b6020026020010151611389565b600a8054906000610bd78361239d565b91905055508080610be79061239d565b915050610b46565b610bf76113d9565b73ffffffffffffffffffffffffffffffffffffffff811660009081526009602052604090205460ff1615610c87576040517f08c379a000000000000000000000000000000000000000000000000000000000815260206004820152601e60248201527f4164647265737320697320616c726561647920616e206f70657261746f720000604482015260640161059d565b73ffffffffffffffffffffffffffffffffffffffff811660008181526009602052604080822080547fffffffffffffffffffffffffffffffffffffffffffffffffffffffffffffff00166001179055517fac6fa858e9350a46cec16539926e0fde25b7629f84b5a72bffaae4df888ae86d9190a250565b61054d3383836114a3565b610d116113d9565b73ffffffffffffffffffffffffffffffffffffffff811660009081526009602052604090205460ff16610da0576040517f08c379a000000000000000000000000000000000000000000000000000000000815260206004820152601a60248201527f41646472657373206973206e6f7420616e206f70657261746f72000000000000604482015260640161059d565b73ffffffffffffffffffffffffffffffffffffffff811660008181526009602052604080822080547fffffffffffffffffffffffffffffffffffffffffffffffffffffffffffffff00169055517f80c0b871b97b595b16a7741c1b06fed0c6f6f558639f18ccbce50724325dc40d9190a250565b610e1f848484610551565b610641848484846115a0565b6060610e36826110ef565b5060008281526006602052604081208054610e509061234a565b80601f0160208091040260200160405190810160405280929190818152602001828054610e7c9061234a565b8015610ec95780601f10610e9e57610100808354040283529160200191610ec9565b820191906000526020600020905b815481529060010190602001808311610eac57829003601f168201915b505050505090506000610eda611797565b90508051600003610eec575092915050565b815115610f1e578082604051602001610f06929190612593565b60405160208183030381529060405292505050919050565b610f27846117a6565b949350505050565b610f376113d9565b73ffffffffffffffffffffffffffffffffffffffff8116610f87576040517f1e4fbdf70000000000000000000000000000000000000000000000000000000081526000600482015260240161059d565b610f908161142c565b50565b60008181526008602090815260409182902080548351818402810184019094528084526060939283018282801561100057602002820191906000526020600020905b815473ffffffffffffffffffffffffffffffffffffffff168152600190910190602001808311610fd5575b50505050509050919050565b60007fffffffff0000000000000000000000000000000000000000000000000000000082167f80ac58cd00000000000000000000000000000000000000000000000000000000148061109f57507fffffffff0000000000000000000000000000000000000000000000000000000082167f5b5e139f00000000000000000000000000000000000000000000000000000000145b8061047457507f01ffc9a7000000000000000000000000000000000000000000000000000000007fffffffff00000000000000000000000000000000000000000000000000000000831614610474565b60008181526002602052604081205473ffffffffffffffffffffffffffffffffffffffff1680610474576040517f7e2732890000000000000000000000000000000000000000000000000000000081526004810184905260240161059d565b610747838383600161180e565b60008281526002602052604081205473ffffffffffffffffffffffffffffffffffffffff90811690831615611195576111958184866119d9565b73ffffffffffffffffffffffffffffffffffffffff81161561120b576111bf60008560008061180e565b73ffffffffffffffffffffffffffffffffffffffff8116600090815260036020526040902080547fffffffffffffffffffffffffffffffffffffffffffffffffffffffffffffffff0190555b73ffffffffffffffffffffffffffffffffffffffff8516156112545773ffffffffffffffffffffffffffffffffffffffff85166000908152600360205260409020805460010190555b60008481526002602052604080822080547fffffffffffffffffffffffff00000000000000000000000000000000000000001673ffffffffffffffffffffffffffffffffffffffff89811691821790925591518793918516917fddf252ad1be2c89b69c2b068fc378daa952ba7f163c4a11628f55a4df523b3ef91a4949350505050565b73ffffffffffffffffffffffffffffffffffffffff8216611328576040517f64a0ae920000000000000000000000000000000000000000000000000000000081526000600482015260240161059d565b60006113368383600061115b565b905073ffffffffffffffffffffffffffffffffffffffff811615610747576040517f73c6ac6e0000000000000000000000000000000000000000000000000000000081526000600482015260240161059d565b60008281526006602052604090206113a1828261244a565b506040518281527ff8e1a15aba9398e019f0b49df1a4fde98ee17ae345cb5f6b5e2c27f5033e8ce79060200160405180910390a15050565b60075473ffffffffffffffffffffffffffffffffffffffff1633146108a7576040517f118cdaa700000000000000000000000000000000000000000000000000000000815233600482015260240161059d565b6007805473ffffffffffffffffffffffffffffffffffffffff8381167fffffffffffffffffffffffff0000000000000000000000000000000000000000831681179093556040519116919082907f8be0079c531659141344cd1fd0a4f28419497f9722a3daafe3b4186f6b6457e090600090a35050565b73ffffffffffffffffffffffffffffffffffffffff8216611508576040517f5b08ba1800000000000000000000000000000000000000000000000000000000815273ffffffffffffffffffffffffffffffffffffffff8316600482015260240161059d565b73ffffffffffffffffffffffffffffffffffffffff83811660008181526005602090815260408083209487168084529482529182902080547fffffffffffffffffffffffffffffffffffffffffffffffffffffffffffffff001686151590811790915591519182527f17307eab39ab6107e8899845ad3d59bd9653f200f220920489ca2b5937696c31910160405180910390a3505050565b73ffffffffffffffffffffffffffffffffffffffff83163b15610641576040517f150b7a0200000000000000000000000000000000000000000000000000000000815273ffffffffffffffffffffffffffffffffffffffff84169063150b7a02906116159033908890879087906004016125c2565b6020604051808303816000875af192505050801561166e575060408051601f3d9081017fffffffffffffffffffffffffffffffffffffffffffffffffffffffffffffffe016820190925261166b9181019061260b565b60015b6116fd573d80801561169c576040519150601f19603f3d011682016040523d82523d6000602084013e6116a1565b606091505b5080516000036116f5576040517f64a0ae9200000000000000000000000000000000000000000000000000000000815273ffffffffffffffffffffffffffffffffffffffff8516600482015260240161059d565b805181602001fd5b7fffffffff0000000000000000000000000000000000000000000000000000000081167f150b7a020000000000000000000000000000000000000000000000000000000014611790576040517f64a0ae9200000000000000000000000000000000000000000000000000000000815273ffffffffffffffffffffffffffffffffffffffff8516600482015260240161059d565b5050505050565b6060600b80546104899061234a565b60606117b1826110ef565b5060006117bc611797565b905060008151116117dc5760405180602001604052806000815250611807565b806117e684611a89565b6040516020016117f7929190612593565b6040516020818303038152906040525b9392505050565b808061182f575073ffffffffffffffffffffffffffffffffffffffff821615155b1561198457600061183f846110ef565b905073ffffffffffffffffffffffffffffffffffffffff83161580159061189257508273ffffffffffffffffffffffffffffffffffffffff168173ffffffffffffffffffffffffffffffffffffffff1614155b80156118d1575073ffffffffffffffffffffffffffffffffffffffff80821660009081526005602090815260408083209387168352929052205460ff16155b15611920576040517fa9fbf51f00000000000000000000000000000000000000000000000000000000815273ffffffffffffffffffffffffffffffffffffffff8416600482015260240161059d565b811561198257838573ffffffffffffffffffffffffffffffffffffffff168273ffffffffffffffffffffffffffffffffffffffff167f8c5be1e5ebec7d5bd14f71427d1e84f3dd0314c0f7b2291e5b200ac8c7c3b92560405160405180910390a45b505b5050600090815260046020526040902080547fffffffffffffffffffffffff00000000000000000000000000000000000000001673ffffffffffffffffffffffffffffffffffffffff92909216919091179055565b6119e4838383611b47565b6107475773ffffffffffffffffffffffffffffffffffffffff8316611a38576040517f7e2732890000000000000000000000000000000000000000000000000000000081526004810182905260240161059d565b6040517f177e802f00000000000000000000000000000000000000000000000000000000815273ffffffffffffffffffffffffffffffffffffffff831660048201526024810182905260440161059d565b60606000611a9683611c0b565b600101905060008167ffffffffffffffff811115611ab657611ab6611e61565b6040519080825280601f01601f191660200182016040528015611ae0576020820181803683370190505b5090508181016020015b7fffffffffffffffffffffffffffffffffffffffffffffffffffffffffffffffff017f3031323334353637383961626364656600000000000000000000000000000000600a86061a8153600a8504945084611aea57509392505050565b600073ffffffffffffffffffffffffffffffffffffffff831615801590610f2757508273ffffffffffffffffffffffffffffffffffffffff168473ffffffffffffffffffffffffffffffffffffffff161480611bd5575073ffffffffffffffffffffffffffffffffffffffff80851660009081526005602090815260408083209387168352929052205460ff165b80610f2757505060009081526004602052604090205473ffffffffffffffffffffffffffffffffffffffff908116911614919050565b6000807a184f03e93ff9f4daa797ed6e38ed64bf6a1f0100000000000000008310611c54577a184f03e93ff9f4daa797ed6e38ed64bf6a1f010000000000000000830492506040015b6d04ee2d6d415b85acef81000000008310611c80576d04ee2d6d415b85acef8100000000830492506020015b662386f26fc100008310611c9e57662386f26fc10000830492506010015b6305f5e1008310611cb6576305f5e100830492506008015b6127108310611cca57612710830492506004015b60648310611cdc576064830492506002015b600a83106104745760010192915050565b7fffffffff0000000000000000000000000000000000000000000000000000000081168114610f9057600080fd5b600060208284031215611d2d57600080fd5b813561180781611ced565b60005b83811015611d53578181015183820152602001611d3b565b50506000910152565b60008151808452611d74816020860160208601611d38565b601f017fffffffffffffffffffffffffffffffffffffffffffffffffffffffffffffffe0169290920160200192915050565b6020815260006118076020830184611d5c565b600060208284031215611dcb57600080fd5b5035919050565b803573ffffffffffffffffffffffffffffffffffffffff81168114611df657600080fd5b919050565b60008060408385031215611e0e57600080fd5b611e1783611dd2565b946020939093013593505050565b600080600060608486031215611e3a57600080fd5b611e4384611dd2565b9250611e5160208501611dd2565b9150604084013590509250925092565b7f4e487b7100000000000000000000000000000000000000000000000000000000600052604160045260246000fd5b604051601f82017fffffffffffffffffffffffffffffffffffffffffffffffffffffffffffffffe016810167ffffffffffffffff81118282101715611ed757611ed7611e61565b604052919050565b600067ffffffffffffffff831115611ef957611ef9611e61565b611f2a60207fffffffffffffffffffffffffffffffffffffffffffffffffffffffffffffffe0601f86011601611e90565b9050828152838383011115611f3e57600080fd5b828260208301376000602084830101529392505050565b600082601f830112611f6657600080fd5b61180783833560208501611edf565b600080600060608486031215611f8a57600080fd5b611f9384611dd2565b925060208401359150604084013567ffffffffffffffff811115611fb657600080fd5b611fc286828701611f55565b9150509250925092565b600060208284031215611fde57600080fd5b813567ffffffffffffffff811115611ff557600080fd5b610f2784828501611f55565b60006020828403121561201357600080fd5b61180782611dd2565b600067ffffffffffffffff82111561203657612036611e61565b5060051b60200190565b600082601f83011261205157600080fd5b813560206120666120618361201c565b611e90565b82815260059290921b8401810191818101908684111561208557600080fd5b8286015b848110156120a05780358352918301918301612089565b509695505050505050565b600082601f8301126120bc57600080fd5b813560206120cc6120618361201c565b82815260059290921b840181019181810190868411156120eb57600080fd5b8286015b848110156120a057803567ffffffffffffffff81111561210f5760008081fd5b61211d8986838b0101611f55565b8452509183019183016120ef565b60008060006060848603121561214057600080fd5b833567ffffffffffffffff8082111561215857600080fd5b818601915086601f83011261216c57600080fd5b8135602061217c6120618361201c565b82815260059290921b8401810191818101908a84111561219b57600080fd5b948201945b838610156121c0576121b186611dd2565b825294820194908201906121a0565b975050870135925050808211156121d657600080fd5b6121e287838801612040565b935060408601359150808211156121f857600080fd5b50611fc2868287016120ab565b6000806040838503121561221857600080fd5b61222183611dd2565b91506020830135801515811461223657600080fd5b809150509250929050565b6000806000806080858703121561225757600080fd5b61226085611dd2565b935061226e60208601611dd2565b925060408501359150606085013567ffffffffffffffff81111561229157600080fd5b8501601f810187136122a257600080fd5b6122b187823560208401611edf565b91505092959194509250565b600080604083850312156122d057600080fd5b6122d983611dd2565b91506122e760208401611dd2565b90509250929050565b6020808252825182820181905260009190848201906040850190845b8181101561233e57835173ffffffffffffffffffffffffffffffffffffffff168352928401929184019160010161230c565b50909695505050505050565b600181811c9082168061235e57607f821691505b602082108103612397577f4e487b7100000000000000000000000000000000000000000000000000000000600052602260045260246000fd5b50919050565b60007fffffffffffffffffffffffffffffffffffffffffffffffffffffffffffffffff82036123f5577f4e487b7100000000000000000000000000000000000000000000000000000000600052601160045260246000fd5b5060010190565b601f82111561074757600081815260208120601f850160051c810160208610156124235750805b601f850160051c820191505b818110156124425782815560010161242f565b505050505050565b815167ffffffffffffffff81111561246457612464611e61565b61247881612472845461234a565b846123fc565b602080601f8311600181146124cb57600084156124955750858301515b7fffffffffffffffffffffffffffffffffffffffffffffffffffffffffffffffff600386901b1c1916600185901b178555612442565b6000858152602081207fffffffffffffffffffffffffffffffffffffffffffffffffffffffffffffffe08616915b82811015612518578886015182559484019460019091019084016124f9565b508582101561255457878501517fffffffffffffffffffffffffffffffffffffffffffffffffffffffffffffffff600388901b60f8161c191681555b5050505050600190811b01905550565b7f4e487b7100000000000000000000000000000000000000000000000000000000600052603260045260246000fd5b600083516125a5818460208801611d38565b8351908301906125b9818360208801611d38565b01949350505050565b600073ffffffffffffffffffffffffffffffffffffffff8087168352808616602084015250836040830152608060608301526126016080830184611d5c565b9695505050505050565b60006020828403121561261d57600080fd5b815161180781611ced56fea264697066735822122066167f853214bbf5a409547d63ae9e2163fcbff71ae6fc24bc1758221f792ce264736f6c63430008140033",
  "linkReferences": {},
  "deployedLinkReferences": {}
}